{
  "contractName": "EER2A",
  "abi": [
    {
      "constant": true,
      "inputs": [
        {
          "name": "",
          "type": "uint256"
        }
      ],
      "name": "metalinks",
      "outputs": [
        {
          "name": "",
          "type": "string"
        }
      ],
      "payable": false,
      "stateMutability": "view",
      "type": "function"
    },
    {
      "constant": true,
      "inputs": [
        {
          "name": "",
          "type": "uint256"
        }
      ],
      "name": "maxIndex",
      "outputs": [
        {
          "name": "",
          "type": "uint256"
        }
      ],
      "payable": false,
      "stateMutability": "view",
      "type": "function"
    },
    {
      "constant": true,
      "inputs": [
        {
          "name": "",
          "type": "uint256"
        }
      ],
      "name": "minters",
      "outputs": [
        {
          "name": "",
          "type": "address"
        }
      ],
      "payable": false,
      "stateMutability": "view",
      "type": "function"
    },
    {
      "constant": true,
      "inputs": [
        {
          "name": "",
          "type": "uint256"
        }
      ],
      "name": "totalSupplies",
      "outputs": [
        {
          "name": "",
          "type": "uint256"
        }
      ],
      "payable": false,
      "stateMutability": "view",
      "type": "function"
    },
    {
      "anonymous": false,
      "inputs": [
        {
          "indexed": true,
          "name": "_owner",
          "type": "address"
        },
        {
          "indexed": true,
          "name": "_operator",
          "type": "address"
        },
        {
          "indexed": false,
          "name": "_approved",
          "type": "bool"
        }
      ],
      "name": "ApprovalForAll",
      "type": "event"
    },
    {
      "anonymous": false,
      "inputs": [
        {
          "indexed": true,
          "name": "_operator",
          "type": "address"
        },
        {
          "indexed": true,
          "name": "_from",
          "type": "address"
        },
        {
          "indexed": true,
          "name": "_to",
          "type": "address"
        },
        {
          "indexed": false,
          "name": "_typeID",
          "type": "uint256"
        },
        {
          "indexed": false,
          "name": "_value",
          "type": "uint256"
        }
      ],
      "name": "TransferSingle",
      "type": "event"
    },
    {
      "anonymous": false,
      "inputs": [
        {
          "indexed": true,
          "name": "_operator",
          "type": "address"
        },
        {
          "indexed": true,
          "name": "_from",
          "type": "address"
        },
        {
          "indexed": true,
          "name": "_to",
          "type": "address"
        },
        {
          "indexed": false,
          "name": "_typeIDs",
          "type": "uint256[]"
        },
        {
          "indexed": false,
          "name": "_values",
          "type": "uint256[]"
        }
      ],
      "name": "TransferBatch",
      "type": "event"
    },
    {
      "anonymous": false,
      "inputs": [
        {
          "indexed": true,
          "name": "_operator",
          "type": "address"
        },
        {
          "indexed": false,
          "name": "_froms",
          "type": "address[]"
        },
        {
          "indexed": false,
          "name": "_tos",
          "type": "address[]"
        },
        {
          "indexed": false,
          "name": "_typeIDs",
          "type": "uint256[]"
        },
        {
          "indexed": false,
          "name": "_values",
          "type": "uint256[]"
        },
        {
          "indexed": true,
          "name": "_key",
          "type": "bytes"
        }
      ],
      "name": "TransferFullBatch",
      "type": "event"
    },
    {
      "constant": true,
      "inputs": [
        {
          "name": "_typeID",
          "type": "uint256"
        }
      ],
      "name": "isNonFungible",
      "outputs": [
        {
          "name": "",
          "type": "bool"
        }
      ],
      "payable": false,
      "stateMutability": "pure",
      "type": "function"
    },
    {
      "constant": true,
      "inputs": [
        {
          "name": "_typeID",
          "type": "uint256"
        }
      ],
      "name": "isFungible",
      "outputs": [
        {
          "name": "",
          "type": "bool"
        }
      ],
      "payable": false,
      "stateMutability": "pure",
      "type": "function"
    },
    {
      "constant": true,
      "inputs": [
        {
          "name": "_itemID",
          "type": "uint256"
        }
      ],
      "name": "getNonFungibleIndex",
      "outputs": [
        {
          "name": "",
          "type": "uint256"
        }
      ],
      "payable": false,
      "stateMutability": "pure",
      "type": "function"
    },
    {
      "constant": true,
      "inputs": [
        {
          "name": "_itemID",
          "type": "uint256"
        }
      ],
      "name": "getNonFungibleBaseType",
      "outputs": [
        {
          "name": "",
          "type": "uint256"
        }
      ],
      "payable": false,
      "stateMutability": "pure",
      "type": "function"
    },
    {
      "constant": true,
      "inputs": [
        {
          "name": "_typeID",
          "type": "uint256"
        }
      ],
      "name": "isNonFungibleBaseType",
      "outputs": [
        {
          "name": "",
          "type": "bool"
        }
      ],
      "payable": false,
      "stateMutability": "pure",
      "type": "function"
    },
    {
      "constant": true,
      "inputs": [
        {
          "name": "itemID",
          "type": "uint256"
        }
      ],
      "name": "isNonFungibleItem",
      "outputs": [
        {
          "name": "",
          "type": "bool"
        }
      ],
      "payable": false,
      "stateMutability": "pure",
      "type": "function"
    },
    {
      "constant": true,
      "inputs": [
        {
          "name": "_itemID",
          "type": "uint256"
        }
      ],
      "name": "ownerOf",
      "outputs": [
        {
          "name": "",
          "type": "address"
        }
      ],
      "payable": false,
      "stateMutability": "view",
      "type": "function"
    },
    {
      "constant": true,
      "inputs": [
        {
          "name": "_owner",
          "type": "address"
        },
        {
          "name": "_typeID",
          "type": "uint256"
        }
      ],
      "name": "balanceOf",
      "outputs": [
        {
          "name": "",
          "type": "uint256"
        }
      ],
      "payable": false,
      "stateMutability": "view",
      "type": "function"
    },
    {
      "constant": true,
      "inputs": [
        {
          "name": "_typeID",
          "type": "uint256"
        }
      ],
      "name": "metaLink",
      "outputs": [
        {
          "name": "",
          "type": "string"
        }
      ],
      "payable": false,
      "stateMutability": "view",
      "type": "function"
    },
    {
      "constant": true,
      "inputs": [
        {
          "name": "_owners",
          "type": "address[]"
        },
        {
          "name": "_typeIDs",
          "type": "uint256[]"
        }
      ],
      "name": "balanceOfBatch",
      "outputs": [
        {
          "name": "",
          "type": "uint256[]"
        }
      ],
      "payable": false,
      "stateMutability": "view",
      "type": "function"
    },
    {
      "constant": false,
      "inputs": [
        {
          "name": "_operator",
          "type": "address"
        },
        {
          "name": "_approved",
          "type": "bool"
        }
      ],
      "name": "setApprovalForAll",
      "outputs": [],
      "payable": false,
      "stateMutability": "nonpayable",
      "type": "function"
    },
    {
      "constant": true,
      "inputs": [
        {
          "name": "_owner",
          "type": "address"
        },
        {
          "name": "_operator",
          "type": "address"
        }
      ],
      "name": "isApprovedForAll",
      "outputs": [
        {
          "name": "",
          "type": "bool"
        }
      ],
      "payable": false,
      "stateMutability": "view",
      "type": "function"
    },
    {
      "constant": false,
      "inputs": [
        {
          "name": "_from",
          "type": "address"
        },
        {
          "name": "_to",
          "type": "address"
        },
        {
          "name": "_typeID",
          "type": "uint256"
        },
        {
          "name": "_value",
          "type": "uint256"
        },
        {
          "name": "_data",
          "type": "bytes"
        }
      ],
      "name": "safeTransferFrom",
      "outputs": [],
      "payable": false,
      "stateMutability": "nonpayable",
      "type": "function"
    },
    {
      "constant": false,
      "inputs": [
        {
          "name": "_from",
          "type": "address"
        },
        {
          "name": "_to",
          "type": "address"
        },
        {
          "name": "_typeIDs",
          "type": "uint256[]"
        },
        {
          "name": "_values",
          "type": "uint256[]"
        },
        {
          "name": "_data",
          "type": "bytes"
        }
      ],
      "name": "safeBatchTransferFrom",
      "outputs": [],
      "payable": false,
      "stateMutability": "nonpayable",
      "type": "function"
    },
    {
      "constant": false,
      "inputs": [
        {
          "name": "_froms",
          "type": "address[]"
        },
        {
          "name": "_tos",
          "type": "address[]"
        },
        {
          "name": "_typeIDs",
          "type": "uint256[]"
        },
        {
          "name": "_values",
          "type": "uint256[]"
        },
        {
          "name": "_data",
          "type": "bytes"
        }
      ],
      "name": "safeFullBatchTransferFrom",
      "outputs": [],
      "payable": false,
      "stateMutability": "nonpayable",
      "type": "function"
    }
  ],
  "bytecode": "0x608060405234801561001057600080fd5b506120eb806100206000396000f3fe6080604052600436106100e95760003560e01c63ffffffff168062fdd58e146100ee57806301c376a01461013957806308d7d469146101d85780632eb2c2d61461020257806346cb2f1b1461033e5780634e1273f4146103685780635e81b958146104875780636352211e146104c55780636f969c2d1461050b5780637269a327146105355780638623ec7b1461055f5780639cca1c6414610589578063a22cb465146105b3578063adebf6f2146105ee578063b54fa47414610618578063e44591f014610642578063e985e9c51461066c578063f242432a146106a7578063f4b781cb14610749575b600080fd5b3480156100fa57600080fd5b506101276004803603604081101561011157600080fd5b50600160a060020a03813516906020013561090e565b60408051918252519081900360200190f35b34801561014557600080fd5b506101636004803603602081101561015c57600080fd5b503561097e565b6040805160208082528351818301528351919283929083019185019080838360005b8381101561019d578181015183820152602001610185565b50505050905090810190601f1680156101ca5780820380516001836020036101000a031916815260200191505b509250505060405180910390f35b3480156101e457600080fd5b50610127600480360360208110156101fb57600080fd5b5035610a19565b34801561020e57600080fd5b5061033c600480360360a081101561022557600080fd5b600160a060020a03823581169260208101359091169181019060608101604082013564010000000081111561025957600080fd5b82018360208201111561026b57600080fd5b8035906020019184602083028401116401000000008311171561028d57600080fd5b9193909290916020810190356401000000008111156102ab57600080fd5b8201836020820111156102bd57600080fd5b803590602001918460208302840111640100000000831117156102df57600080fd5b9193909290916020810190356401000000008111156102fd57600080fd5b82018360208201111561030f57600080fd5b8035906020019184600183028401116401000000008311171561033157600080fd5b509092509050610a2b565b005b34801561034a57600080fd5b506101636004803603602081101561036157600080fd5b5035610f9d565b34801561037457600080fd5b506104376004803603604081101561038b57600080fd5b8101906020810181356401000000008111156103a657600080fd5b8201836020820111156103b857600080fd5b803590602001918460208302840111640100000000831117156103da57600080fd5b9193909290916020810190356401000000008111156103f857600080fd5b82018360208201111561040a57600080fd5b8035906020019184602083028401116401000000008311171561042c57600080fd5b50909250905061103e565b60408051602080825283518183015283519192839290830191858101910280838360005b8381101561047357818101518382015260200161045b565b505050509050019250505060405180910390f35b34801561049357600080fd5b506104b1600480360360208110156104aa57600080fd5b5035611134565b604080519115158252519081900360200190f35b3480156104d157600080fd5b506104ef600480360360208110156104e857600080fd5b503561115e565b60408051600160a060020a039092168252519081900360200190f35b34801561051757600080fd5b506101276004803603602081101561052e57600080fd5b5035611179565b34801561054157600080fd5b506104b16004803603602081101561055857600080fd5b503561118f565b34801561056b57600080fd5b506104ef6004803603602081101561058257600080fd5b50356111b1565b34801561059557600080fd5b50610127600480360360208110156105ac57600080fd5b50356111cc565b3480156105bf57600080fd5b5061033c600480360360408110156105d657600080fd5b50600160a060020a03813516906020013515156111e1565b3480156105fa57600080fd5b506104b16004803603602081101561061157600080fd5b503561124f565b34801561062457600080fd5b506101276004803603602081101561063b57600080fd5b5035611275565b34801561064e57600080fd5b506104b16004803603602081101561066557600080fd5b5035611287565b34801561067857600080fd5b506104b16004803603604081101561068f57600080fd5b50600160a060020a03813581169160200135166112af565b3480156106b357600080fd5b5061033c600480360360a08110156106ca57600080fd5b600160a060020a03823581169260208101359091169160408201359160608101359181019060a08101608082013564010000000081111561070a57600080fd5b82018360208201111561071c57600080fd5b8035906020019184600183028401116401000000008311171561073e57600080fd5b5090925090506112dd565b34801561075557600080fd5b5061033c600480360360a081101561076c57600080fd5b81019060208101813564010000000081111561078757600080fd5b82018360208201111561079957600080fd5b803590602001918460208302840111640100000000831117156107bb57600080fd5b9193909290916020810190356401000000008111156107d957600080fd5b8201836020820111156107eb57600080fd5b8035906020019184602083028401116401000000008311171561080d57600080fd5b91939092909160208101903564010000000081111561082b57600080fd5b82018360208201111561083d57600080fd5b8035906020019184602083028401116401000000008311171561085f57600080fd5b91939092909160208101903564010000000081111561087d57600080fd5b82018360208201111561088f57600080fd5b803590602001918460208302840111640100000000831117156108b157600080fd5b9193909290916020810190356401000000008111156108cf57600080fd5b8201836020820111156108e157600080fd5b8035906020019184600183028401116401000000008311171561090357600080fd5b509092509050611673565b600061091982611134565b1561095357600082815260026020526040902054600160a060020a03848116911614610946576000610949565b60015b60ff169050610978565b506000818152600660209081526040808320600160a060020a03861684529091529020545b92915050565b60036020908152600091825260409182902080548351601f600260001961010060018616150201909316929092049182018490048402810184019094528084529091830182828015610a115780601f106109e657610100808354040283529160200191610a11565b820191906000526020600020905b8154815290600101906020018083116109f457829003601f168201915b505050505081565b60046020526000908152604090205481565b600160a060020a0387161515610a8b576040805160e560020a62461bcd02815260206004820152601b60248201527f63616e6e6f742073656e6420746f207a65726f20616464726573730000000000604482015290519081900360640190fd5b848314610ae2576040805160e560020a62461bcd02815260206004820152601760248201527f4172726179206c656e677468206d757374206d61746368000000000000000000604482015290519081900360640190fd5b600160a060020a038816331480610b215750600160a060020a038816600090815260076020908152604080832033845290915290205460ff1615156001145b1515610b9d576040805160e560020a62461bcd02815260206004820152602f60248201527f4e656564206f70657261746f7220617070726f76616c20666f7220337264207060448201527f61727479207472616e73666572732e0000000000000000000000000000000000606482015290519081900360840190fd5b60005b85811015610e26576000878783818110610bb657fe5b90506020020135905060008686848181101515610bcf57fe5b905060200201359050610be182611287565b15610d4257600082815260026020526040902054600160a060020a038c8116911614610c0c57600080fd5b6000828152600260205260408120805473ffffffffffffffffffffffffffffffffffffffff1916600160a060020a038d16179055610c4983611179565b9050610c9560016006600084815260200190815260200160002060008f600160a060020a0316600160a060020a0316815260200190815260200160002054611bc590919063ffffffff16565b6006600083815260200190815260200160002060008e600160a060020a0316600160a060020a0316815260200190815260200160002081905550610d1960016006600084815260200190815260200160002060008e600160a060020a0316600160a060020a0316815260200190815260200160002054611c2590919063ffffffff16565b6000918252600660209081526040808420600160a060020a038f16855290915290912055610e1c565b6000828152600660209081526040808320600160a060020a038f168452909152902054610d75908263ffffffff611bc516565b6006600084815260200190815260200160002060008d600160a060020a0316600160a060020a0316815260200190815260200160002081905550610df86006600084815260200190815260200160002060008c600160a060020a0316600160a060020a031681526020019081526020016000205482611c2590919063ffffffff16565b6000838152600660209081526040808320600160a060020a038f1684529091529020555b5050600101610ba0565b5086600160a060020a031688600160a060020a031633600160a060020a03167f4a39dc06d4c0dbc64b70af90fd698a233a518aa5d07e595d983b8c0526c8f7fb898989896040518080602001806020018381038352878782818152602001925060200280828437600083820152601f01601f19169091018481038352858152602090810191508690860280828437600083820152604051601f909101601f19169092018290039850909650505050505050a4610eea87600160a060020a0316611c89565b15610f9357610f9333898989898080602002602001604051908101604052809392919081815260200183836020028082843760009201919091525050604080516020808d0282810182019093528c82529093508c92508b91829185019084908082843760009201919091525050604080516020601f8c018190048102820181019092528a815292508a9150899081908401838280828437600092019190915250611c9192505050565b5050505050505050565b60008181526003602090815260409182902080548351601f60026000196101006001861615020190931692909204918201849004840281018401909452808452606093928301828280156110325780601f1061100757610100808354040283529160200191611032565b820191906000526020600020905b81548152906001019060200180831161101557829003601f168201915b50505050509050919050565b6060838214611097576040805160e560020a62461bcd02815260206004820152601f60248201527f4372656469743a204172726179206c656e677468206d757374206d6174636800604482015290519081900360640190fd5b6040805185815260208087028201019091526060908580156110c3578160200160208202803883390190505b50905060005b8581101561112a5761110a8787838181106110e057fe5b90506020020135600160a060020a031686868481811015156110fe57fe5b9050602002013561090e565b828281518110151561111857fe5b602090810290910101526001016110c9565b5095945050505050565b600061113f82611287565b80156109785750506fffffffffffffffffffffffffffffffff16151590565b600090815260026020526040902054600160a060020a031690565b6fffffffffffffffffffffffffffffffff191690565b600061119a82611287565b801561097857506111aa826111cc565b1592915050565b600160205260009081526040902054600160a060020a031681565b6fffffffffffffffffffffffffffffffff1690565b336000818152600760209081526040808320600160a060020a03871680855290835292819020805460ff1916861515908117909155815190815290519293927f17307eab39ab6107e8899845ad3d59bd9653f200f220920489ca2b5937696c31929181900390910190a35050565b7f8000000000000000000000000000000000000000000000000000000000000000161590565b60056020526000908152604090205481565b7f80000000000000000000000000000000000000000000000000000000000000009081161490565b600160a060020a03918216600090815260076020908152604080832093909416825291909152205460ff1690565b600160a060020a0385161515611363576040805160e560020a62461bcd02815260206004820152602360248201527f4372656469743a2063616e6e6f742073656e6420746f207a65726f206164647260448201527f6573730000000000000000000000000000000000000000000000000000000000606482015290519081900360840190fd5b600160a060020a0386163314806113a25750600160a060020a038616600090815260076020908152604080832033845290915290205460ff1615156001145b151561141e576040805160e560020a62461bcd02815260206004820152603760248201527f4372656469743a204e656564206f70657261746f7220617070726f76616c206660448201527f6f7220337264207061727479207472616e73666572732e000000000000000000606482015290519081900360840190fd5b61142784611287565b1561152557600084815260026020526040902054600160a060020a0387811691161461145257600080fd5b6000848152600260205260408120805473ffffffffffffffffffffffffffffffffffffffff1916600160a060020a03881617905561148f85611179565b6000818152600660209081526040808320600160a060020a038c1684529091529020549091506114c5908563ffffffff611bc516565b6000828152600660209081526040808320600160a060020a038c811685529252808320939093558816815220546114fc9085611c25565b6000918252600660209081526040808420600160a060020a038a168552909152909120556115b3565b6000848152600660209081526040808320600160a060020a038a168452909152902054611558908463ffffffff611bc516565b6000858152600660209081526040808320600160a060020a038b8116855292528083209390935587168152205461158f9084611c25565b6000858152600660209081526040808320600160a060020a038a1684529091529020555b84600160a060020a031686600160a060020a031633600160a060020a03167fc3d58168c5ae7397731d063d5bbf3d657854427343f4c083240f7aacaa2d0f628787604051808381526020018281526020019250505060405180910390a461162285600160a060020a0316611c89565b1561166b5761166b338787878787878080601f016020809104026020016040519081016040528093929190818152602001838380828437600092019190915250611ee692505050565b505050505050565b888714801561168157508885145b801561168c57508883145b15156116e2576040805160e560020a62461bcd02815260206004820152601f60248201527f4372656469743a204172726179206c656e677468206d757374206d6174636800604482015290519081900360640190fd5b60005b89811015611a9c5760008b8b838181106116fb57fe5b90506020020135600160a060020a0316905060008a8a84818110151561171d57fe5b90506020020135600160a060020a031690506000898985818110151561173f57fe5b9050602002013590506000888886818110151561175857fe5b6020029190910135915050600160a060020a03831615156117e9576040805160e560020a62461bcd02815260206004820152602360248201527f4372656469743a2063616e6e6f742073656e6420746f207a65726f206164647260448201527f6573730000000000000000000000000000000000000000000000000000000000606482015290519081900360840190fd5b600160a060020a0384163314806118285750600160a060020a038416600090815260076020908152604080832033845290915290205460ff1615156001145b15156118a4576040805160e560020a62461bcd02815260206004820152603760248201527f4372656469743a204e656564206f70657261746f7220617070726f76616c206660448201527f6f7220337264207061727479207472616e73666572732e000000000000000000606482015290519081900360840190fd5b6118ad82611287565b156119a357600082815260026020526040902054600160a060020a038581169116146118d857600080fd5b60006118e383611179565b6000848152600260209081526040808320805473ffffffffffffffffffffffffffffffffffffffff1916600160a060020a038a81169190911790915584845260068352818420908a168452909152902054909150611942906001611bc5565b6000828152600660209081526040808320600160a060020a038a8116855292528083209390935586168152205461197a906001611c25565b6000918252600660209081526040808420600160a060020a038816855290915290912055611a32565b6000828152600660209081526040808320600160a060020a03881684529091529020546119d6908263ffffffff611bc516565b6000838152600660209081526040808320600160a060020a038981168552925280832093909355851681522054611a0e908290611c25565b6000838152600660209081526040808320600160a060020a03881684529091529020555b611a4483600160a060020a0316611c89565b15611a8d57611a8d33858585858c8c8080601f016020809104026020016040519081016040528093929190818152602001838380828437600092019190915250611ee692505050565b505050508060010190506116e5565b508181604051808383808284378083019250505092505050604051809103902033600160a060020a03167fb2bbad7ba6f87956dcb373f8d6196043547f5fe76a0fef13d3c8dbfb43d2ff1a8c8c8c8c8c8c8c8c604051808060200180602001806020018060200185810385528d8d82818152602001925060200280828437600083820152601f01601f191690910186810385528b8152602090810191508c908c0280828437600083820152601f01601f19169091018681038452898152602090810191508a908a0280828437600083820152601f01601f19169091018681038352878152602090810191508890880280828437600083820152604051601f909101601f19169092018290039e50909c50505050505050505050505050a350505050505050505050565b600082821115611c1f576040805160e560020a62461bcd02815260206004820152601e60248201527f536166654d6174683a207375627472616374696f6e206f766572666c6f770000604482015290519081900360640190fd5b50900390565b600082820183811015611c82576040805160e560020a62461bcd02815260206004820152601b60248201527f536166654d6174683a206164646974696f6e206f766572666c6f770000000000604482015290519081900360640190fd5b9392505050565b6000903b1190565b63baf5f22860e01b7bffffffffffffffffffffffffffffffffffffffffffffffffffffffff191684600160a060020a031663baf5f22888888787876040518663ffffffff1660e01b81526004018086600160a060020a0316600160a060020a0316815260200185600160a060020a0316600160a060020a03168152602001806020018060200180602001848103845287818151815260200191508051906020019060200280838360005b83811015611d53578181015183820152602001611d3b565b50505050905001848103835286818151815260200191508051906020019060200280838360005b83811015611d92578181015183820152602001611d7a565b50505050905001848103825285818151815260200191508051906020019080838360005b83811015611dce578181015183820152602001611db6565b50505050905090810190601f168015611dfb5780820380516001836020036101000a031916815260200191505b5098505050505050505050602060405180830381600087803b158015611e2057600080fd5b505af1158015611e34573d6000803e3d6000fd5b505050506040513d6020811015611e4a57600080fd5b50517bffffffffffffffffffffffffffffffffffffffffffffffffffffffff19161461166b576040805160e560020a62461bcd02815260206004820152603b60248201527f636f6e74726163742072657475726e656420616e20756e6b6e6f776e2076616c60448201527f75652066726f6d206f6e45455232426174636852656365697665640000000000606482015290519081900360840190fd5b6309a23c2960e01b7bffffffffffffffffffffffffffffffffffffffffffffffffffffffff191684600160a060020a03166309a23c2988888787876040518663ffffffff1660e01b81526004018086600160a060020a0316600160a060020a0316815260200185600160a060020a0316600160a060020a0316815260200184815260200183815260200180602001828103825283818151815260200191508051906020019080838360005b83811015611fa9578181015183820152602001611f91565b50505050905090810190601f168015611fd65780820380516001836020036101000a031916815260200191505b509650505050505050602060405180830381600087803b158015611ff957600080fd5b505af115801561200d573d6000803e3d6000fd5b505050506040513d602081101561202357600080fd5b50517bffffffffffffffffffffffffffffffffffffffffffffffffffffffff19161461166b576040805160e560020a62461bcd02815260206004820152603660248201527f636f6e74726163742072657475726e656420616e20756e6b6e6f776e2076616c60448201527f75652066726f6d206f6e45455232526563656976656400000000000000000000606482015290519081900360840190fdfea165627a7a7230582024a12323278d4c9fd5efcdd0cd9cbb713149ebdb2cb13de61965a4d34b4fb8be0029",
  "source": "pragma solidity ^0.5.0;\n\nimport \"./IEER2A.sol\";\nimport \"./IEER2TokenReceiver.sol\";\nimport \"@openzeppelin/contracts/math/SafeMath.sol\";\nimport \"@openzeppelin/contracts/utils/Address.sol\";\n\n\ncontract EER2A is IEER2A {\n    using SafeMath for uint256;\n    using Address for address;\n\n    bytes4 internal constant EER2_ACCEPTED = 0x09a23c29; // bytes4(keccak256(\"onEER2Received(address,address,uint256,uint256,bytes)\"))\n    bytes4 internal constant EER2_BATCH_ACCEPTED = 0xbaf5f228; // bytes4(keccak256(\"onEER2BatchReceived(address,address,uint256[],uint256[],bytes)\"))\n\n    // Use a split bit implementation.\n    // Store the type in the upper 128 bits..\n    uint256 constant TYPE_MASK = uint256(uint128(~0)) << 128;\n\n    // ..and the non-fungible index in the lower 128\n    uint256 constant NF_INDEX_MASK = uint128(~0);\n\n    // The top bit is a flag to tell if this is a NFI.\n    uint256 constant TYPE_NF_BIT = 1 << 255;\n\n    uint256 nonce;\n    mapping(uint256 => address) public minters;\n    mapping(uint256 => address) nfOwners;\n    mapping(uint256 => string) public metalinks;\n    mapping(uint256 => uint256) public maxIndex;\n    mapping(uint256 => uint256) public totalSupplies;\n\n    // typeID => (owner => balance)\n    mapping(uint256 => mapping(address => uint256)) internal balances;\n\n    // owner => (operator => approved)\n    mapping(address => mapping(address => bool)) internal operatorApproval;\n\n    // Only to make code clearer. Should not be functions\n    function isNonFungible(uint256 _typeID) public pure returns (bool) {\n        return _typeID & TYPE_NF_BIT == TYPE_NF_BIT;\n    }\n\n    function isFungible(uint256 _typeID) public pure returns (bool) {\n        return _typeID & TYPE_NF_BIT == 0;\n    }\n\n    function getNonFungibleIndex(uint256 _itemID) public pure returns (uint256) {\n        return _itemID & NF_INDEX_MASK;\n    }\n\n    function getNonFungibleBaseType(uint256 _itemID) public pure returns (uint256) {\n        return _itemID & TYPE_MASK;\n    }\n\n    function isNonFungibleBaseType(uint256 _typeID) public pure returns (bool) {\n        // A base type has the NF bit but does not have an index.\n        return isNonFungible(_typeID) && getNonFungibleIndex(_typeID) == 0;\n    }\n\n    function isNonFungibleItem(uint256 itemID) public pure returns (bool) {\n        // A base type has the NF bit but does has an index.\n        return isNonFungible(itemID) && (itemID & NF_INDEX_MASK != 0);\n    }\n\n    function ownerOf(uint256 _itemID) public view returns (address) {\n        return nfOwners[_itemID];\n    }\n\n    modifier minterOnly(uint256 _typeID) {\n        require(minters[_typeID] == msg.sender);\n        _;\n    }\n\n    /**\n        @notice Get the balance of an account's Tokens.\n        @dev EER2 balanceOf function\n        @param _owner  The address of the token holder\n        @param _typeID ID of the Token\n        @return        The _owner's balance of the Token type requested\n     */\n    function balanceOf(address _owner, uint256 _typeID) public view returns (uint256) {\n        if (isNonFungibleItem(_typeID)) {\n            return nfOwners[_typeID] == _owner ? 1 : 0;\n        }\n        return balances[_typeID][_owner];\n    }\n\n    function metaLink(uint256 _typeID) external view returns (string memory) {\n        return metalinks[_typeID];\n    }\n\n    /**\n        @notice Get the balance of multiple account/token pairs (override)\n        @dev EER2 balanceOfBatch function\n        @param _owners The addresses of the token holders\n        @param _typeIDs ID of the Tokens\n        @return        The _owner's balance of the Token types requested (i.e. balance for each (owner, typeID) pair)\n     */\n    function balanceOfBatch(address[] calldata _owners, uint256[] calldata _typeIDs)\n        external\n        view\n        returns (uint256[] memory)\n    {\n        require(_owners.length == _typeIDs.length, \"Credit: Array length must match\");\n\n        uint256[] memory _balances = new uint256[](_owners.length);\n        for (uint256 i = 0; i < _owners.length; ++i) {\n            _balances[i] = balanceOf(_owners[i], _typeIDs[i]);\n        }\n        return _balances;\n    }\n\n    /**\n        @notice Enable or disable approval for a third party (\"operator\") to manage all of the caller's tokens.\n        @dev MUST emit the ApprovalForAll event on success.\n        @param _operator  Address to add to the set of authorized operators\n        @param _approved  True if the operator is approved, false to revoke approval\n    */\n    function setApprovalForAll(address _operator, bool _approved) external {\n        operatorApproval[msg.sender][_operator] = _approved;\n        emit ApprovalForAll(msg.sender, _operator, _approved);\n    }\n\n    /**\n        @notice Queries the approval status of an operator for a given owner.\n        @param _owner     The owner of the Tokens\n        @param _operator  Address of authorized operator\n        @return           True if the operator is approved, false if not\n    */\n    function isApprovedForAll(address _owner, address _operator) external view returns (bool) {\n        return operatorApproval[_owner][_operator];\n    }\n\n    /**\n        @notice Transfers `_value` amount of an `_typeID` from the `_from` address to the `_to` address specified (with safety call).\n        @dev Caller must be approved to manage the tokens being transferred out of the `_from` account.\n        MUST revert if `_to` is the zero address.\n        MUST revert if balance of holder for token `_typeID` is lower than the `_value` sent.\n        MUST revert on any other error.\n        MUST emit the `TransferSingle` event. \n        @param _from    Source address\n        @param _to      Target address\n        @param _typeID  ID of the token type\n        @param _value   Transfer amount\n        @param _data    Data sending to event logs\n    */\n    function safeTransferFrom(\n        address _from,\n        address _to,\n        uint256 _typeID,\n        uint256 _value,\n        bytes calldata _data\n    ) external {\n        require(_to != address(0x0), \"Credit: cannot send to zero address\");\n        require(\n            _from == msg.sender || operatorApproval[_from][msg.sender] == true,\n            \"Credit: Need operator approval for 3rd party transfers.\"\n        );\n\n        if (isNonFungible(_typeID)) {\n            require(nfOwners[_typeID] == _from);\n            nfOwners[_typeID] = _to;\n\n            uint256 baseType = getNonFungibleBaseType(_typeID);\n            balances[baseType][_from] = balances[baseType][_from].sub(_value);\n            balances[baseType][_to] = balances[baseType][_to].add(_value);\n        } else {\n            // SafeMath will throw with insufficient funds _from\n            // or if _typeID is not valid (balance will be 0)\n            balances[_typeID][_from] = balances[_typeID][_from].sub(_value);\n            balances[_typeID][_to] = balances[_typeID][_to].add(_value);\n        }\n\n        // MUST emit event\n        emit TransferSingle(msg.sender, _from, _to, _typeID, _value);\n\n        // Now that the balance is updated and the event was emitted,\n        // call onEER2Received if the destination is a contract.\n        if (_to.isContract()) {\n            _doSafeTransferAcceptanceCheck(msg.sender, _from, _to, _typeID, _value, _data);\n        }\n    }\n\n    /**\n        @notice Transfers `_values` amount(s) of `_typeIDs` from the `_from` address to the `_to` address specified (with safety call).\n        @dev Caller must be approved to manage the tokens being transferred out of the `_from` account.\n        MUST revert if `_to` is the zero address.\n        MUST revert if length of `_typeIDs` is not the same as length of `_values`.\n        MUST revert if any of the balance(s) of the holder(s) for token(s) in `_typeIDs` is lower than the respective amount(s) in `_values` sent to the recipient.\n        MUST revert on any other error.\n        MUST emit `TransferSingle` or `TransferBatch` event(s).\n        @param _from    Source address\n        @param _to      Target address\n        @param _typeIDs IDs of each token type (order and length must match _values array)\n        @param _values  Transfer amounts per token type (order and length must match _typeIDs array)\n        @param _data    Data sending to event logs\n    */\n    function safeBatchTransferFrom(\n        address _from,\n        address _to,\n        uint256[] calldata _typeIDs,\n        uint256[] calldata _values,\n        bytes calldata _data\n    ) external {\n        require(_to != address(0x0), \"cannot send to zero address\");\n        require(_typeIDs.length == _values.length, \"Array length must match\");\n\n        // Only supporting a global operator approval allows us to do only 1 check and not to touch storage to handle allowances.\n        require(\n            _from == msg.sender || operatorApproval[_from][msg.sender] == true,\n            \"Need operator approval for 3rd party transfers.\"\n        );\n\n        for (uint256 i = 0; i < _typeIDs.length; ++i) {\n            // Cache value to local variable to reduce read costs.\n            uint256 typeID = _typeIDs[i];\n            uint256 value = _values[i];\n\n            if (isNonFungible(typeID)) {\n                require(nfOwners[typeID] == _from);\n                nfOwners[typeID] = _to;\n                uint256 baseType = getNonFungibleBaseType(typeID);\n                balances[baseType][_from] = balances[baseType][_from].sub(1);\n                balances[baseType][_to] = balances[baseType][_to].add(1);\n            } else {\n                balances[typeID][_from] = balances[typeID][_from].sub(value);\n                balances[typeID][_to] = value.add(balances[typeID][_to]);\n            }\n        }\n\n        emit TransferBatch(msg.sender, _from, _to, _typeIDs, _values);\n\n        if (_to.isContract()) {\n            _doSafeBatchTransferAcceptanceCheck(msg.sender, _from, _to, _typeIDs, _values, _data);\n        }\n    }\n\n    /**\n        Multiple transfer with [multi-sender] [multi-receiver] and [muti-]credit type.\n        @dev Caller must be approved or be an owner of the credit being transferred.\n        MUST be revert if the `_typeID` is invalid.\n        MUST be revert if no authorized to transfer.\n        MUST be revert if `_from`'s `_typeID` balance less than `_value`.\n        MUST be revert if `_from` or `_to` is the zero address.\n        MUST be revert if `_to` is a smart contract but does not implement EER2TokenReceiver.\n        MUST be revert if number of `_froms` `_tos` `_typeIDs` and `_values` does not eqaul.\n        MUST emit TransferFullBatch event.\n        @param _froms    List of Source addresses\n        @param _tos      List of Target addresses\n        @param _typeIDs  List of ID of the credit types\n        @param _values   List of Transfer amounts\n        @param _data     Data sending to event logs\n    */\n    function safeFullBatchTransferFrom(\n        address[] calldata _froms,\n        address[] calldata _tos,\n        uint256[] calldata _typeIDs,\n        uint256[] calldata _values,\n        bytes calldata _data\n    ) external {\n        require(\n            _froms.length == _tos.length &&\n                _froms.length == _typeIDs.length &&\n                _froms.length == _values.length,\n            \"Credit: Array length must match\"\n        );\n\n        for (uint256 i = 0; i < _froms.length; ++i) {\n            // Cache value to local variable to reduce read costs.\n            address from = _froms[i];\n            address to = _tos[i];\n            uint256 typeID = _typeIDs[i];\n            uint256 value = _values[i];\n\n            require(to != address(0x0), \"Credit: cannot send to zero address\");\n            require(\n                from == msg.sender || operatorApproval[from][msg.sender] == true,\n                \"Credit: Need operator approval for 3rd party transfers.\"\n            );\n            if (isNonFungible(typeID)) {\n                require(nfOwners[typeID] == from);\n                uint256 baseType = getNonFungibleBaseType(typeID);\n                nfOwners[typeID] = to;\n                balances[baseType][from] = balances[baseType][from].sub(1);\n                balances[baseType][to] = balances[baseType][to].add(1);\n            } else {\n                balances[typeID][from] = balances[typeID][from].sub(value);\n                balances[typeID][to] = value.add(balances[typeID][to]);\n            }\n            if (to.isContract()) {\n                _doSafeTransferAcceptanceCheck(msg.sender, from, to, typeID, value, _data);\n            }\n        }\n\n        emit TransferFullBatch(msg.sender, _froms, _tos, _typeIDs, _values, _data);\n    }\n\n    /////////////////////////////////////////// Internal //////////////////////////////////////////////\n\n    function _doSafeTransferAcceptanceCheck(\n        address _operator,\n        address _from,\n        address _to,\n        uint256 _typeID,\n        uint256 _value,\n        bytes memory _data\n    ) internal {\n        // If this was a hybrid standards solution you would have to check ERC165(_to).supportsInterface(0x4e2312e0) here but as this is a pure implementation of an EER-2 token set as recommended by\n        // the standard, it is not necessary. The below should revert in all failure cases i.e. _to isn't a receiver, or it is and either returns an unknown value or it reverts in the call to indicate non-acceptance.\n\n        // Note: if the below reverts in the onEER2Received function of the _to address you will have an undefined revert reason returned rather than the one in the require test.\n        // If you want predictable revert reasons consider using low level _to.call() style instead so the revert does not bubble up and you can revert yourself on the EER2_ACCEPTED test.\n        require(\n            IEER2TokenReceiver(_to).onEER2Received(_operator, _from, _typeID, _value, _data) ==\n                EER2_ACCEPTED,\n            \"contract returned an unknown value from onEER2Received\"\n        );\n    }\n\n    function _doSafeBatchTransferAcceptanceCheck(\n        address _operator,\n        address _from,\n        address _to,\n        uint256[] memory _typeIDs,\n        uint256[] memory _values,\n        bytes memory _data\n    ) internal {\n        // If this was a hybrid standards solution you would have to check ERC165(_to).supportsInterface(0x4e2312e0) here but as this is a pure implementation of an EER-2 token set as recommended by\n        // the standard, it is not necessary. The below should revert in all failure cases i.e. _to isn't a receiver, or it is and either returns an unknown value or it reverts in the call to indicate non-acceptance.\n\n        // Note: if the below reverts in the onEER2BatchReceived function of the _to address you will have an undefined revert reason returned rather than the one in the require test.\n        // If you want predictable revert reasons consider using low level _to.call() style instead so the revert does not bubble up and you can revert yourself on the EER2_BATCH_ACCEPTED test.\n        require(\n            IEER2TokenReceiver(_to).onEER2BatchReceived(\n                _operator,\n                _from,\n                _typeIDs,\n                _values,\n                _data\n            ) ==\n                EER2_BATCH_ACCEPTED,\n            \"contract returned an unknown value from onEER2BatchReceived\"\n        );\n    }\n}\n",
  "sourcePath": "@Evrynetlabs/credit-contract/contracts/EER2A.sol",
  "compiler": {
    "name": "solc",
    "version": "0.5.0+commit.1d4f565a.Emscripten.clang"
  },
  "schemaVersion": "3.0.19",
  "updatedAt": "2020-04-10T04:27:11.996Z",
  "devdoc": {
    "methods": {
      "balanceOf(address,uint256)": {
        "details": "EER2 balanceOf function",
        "params": {
          "_owner": "The address of the token holder",
          "_typeID": "ID of the Token"
        },
        "return": "The _owner's balance of the Token type requested"
      },
      "balanceOfBatch(address[],uint256[])": {
        "details": "EER2 balanceOfBatch function",
        "params": {
          "_owners": "The addresses of the token holders",
          "_typeIDs": "ID of the Tokens"
        },
        "return": "The _owner's balance of the Token types requested (i.e. balance for each (owner, typeID) pair)"
      },
      "isApprovedForAll(address,address)": {
        "params": {
          "_operator": "Address of authorized operator",
          "_owner": "The owner of the Tokens"
        },
        "return": "True if the operator is approved, false if not"
      },
      "safeBatchTransferFrom(address,address,uint256[],uint256[],bytes)": {
        "details": "Caller must be approved to manage the tokens being transferred out of the `_from` account. MUST revert if `_to` is the zero address. MUST revert if length of `_typeIDs` is not the same as length of `_values`. MUST revert if any of the balance(s) of the holder(s) for token(s) in `_typeIDs` is lower than the respective amount(s) in `_values` sent to the recipient. MUST revert on any other error. MUST emit `TransferSingle` or `TransferBatch` event(s).",
        "params": {
          "_data": "Data sending to event logs",
          "_from": "Source address",
          "_to": "Target address",
          "_typeIDs": "IDs of each token type (order and length must match _values array)",
          "_values": "Transfer amounts per token type (order and length must match _typeIDs array)"
        }
      },
      "safeFullBatchTransferFrom(address[],address[],uint256[],uint256[],bytes)": {
        "details": "Caller must be approved or be an owner of the credit being transferred. MUST be revert if the `_typeID` is invalid. MUST be revert if no authorized to transfer. MUST be revert if `_from`'s `_typeID` balance less than `_value`. MUST be revert if `_from` or `_to` is the zero address. MUST be revert if `_to` is a smart contract but does not implement EER2TokenReceiver. MUST be revert if number of `_froms` `_tos` `_typeIDs` and `_values` does not eqaul. MUST emit TransferFullBatch event.",
        "params": {
          "_data": "Data sending to event logs",
          "_froms": "List of Source addresses",
          "_tos": "List of Target addresses",
          "_typeIDs": "List of ID of the credit types",
          "_values": "List of Transfer amounts"
        }
      },
      "safeTransferFrom(address,address,uint256,uint256,bytes)": {
        "details": "Caller must be approved to manage the tokens being transferred out of the `_from` account. MUST revert if `_to` is the zero address. MUST revert if balance of holder for token `_typeID` is lower than the `_value` sent. MUST revert on any other error. MUST emit the `TransferSingle` event. ",
        "params": {
          "_data": "Data sending to event logs",
          "_from": "Source address",
          "_to": "Target address",
          "_typeID": "ID of the token type",
          "_value": "Transfer amount"
        }
      },
      "setApprovalForAll(address,bool)": {
        "details": "MUST emit the ApprovalForAll event on success.",
        "params": {
          "_approved": "True if the operator is approved, false to revoke approval",
          "_operator": "Address to add to the set of authorized operators"
        }
      }
    }
  },
  "userdoc": {
    "methods": {
      "balanceOf(address,uint256)": {
        "notice": "Get the balance of an account's Tokens."
      },
      "balanceOfBatch(address[],uint256[])": {
        "notice": "Get the balance of multiple account/token pairs (override)"
      },
      "isApprovedForAll(address,address)": {
        "notice": "Queries the approval status of an operator for a given owner."
      },
      "safeBatchTransferFrom(address,address,uint256[],uint256[],bytes)": {
        "notice": "Transfers `_values` amount(s) of `_typeIDs` from the `_from` address to the `_to` address specified (with safety call)."
      },
      "safeFullBatchTransferFrom(address[],address[],uint256[],uint256[],bytes)": {
        "notice": "Multiple transfer with [multi-sender] [multi-receiver] and [muti-]credit type."
      },
      "safeTransferFrom(address,address,uint256,uint256,bytes)": {
        "notice": "Transfers `_value` amount of an `_typeID` from the `_from` address to the `_to` address specified (with safety call)."
      },
      "setApprovalForAll(address,bool)": {
        "notice": "Enable or disable approval for a third party (\"operator\") to manage all of the caller's tokens."
      }
    }
  }
}