{
  "contractName": "EER2B",
  "abi": [
    {
      "constant": true,
      "inputs": [
        {
          "name": "_owner",
          "type": "address"
        },
        {
          "name": "_typeID",
          "type": "uint256"
        }
      ],
      "name": "balanceOf",
      "outputs": [
        {
          "name": "",
          "type": "uint256"
        }
      ],
      "payable": false,
      "stateMutability": "view",
      "type": "function"
    },
    {
      "constant": true,
      "inputs": [
        {
          "name": "",
          "type": "uint256"
        }
      ],
      "name": "metalinks",
      "outputs": [
        {
          "name": "",
          "type": "string"
        }
      ],
      "payable": false,
      "stateMutability": "view",
      "type": "function"
    },
    {
      "constant": true,
      "inputs": [
        {
          "name": "",
          "type": "uint256"
        }
      ],
      "name": "maxIndex",
      "outputs": [
        {
          "name": "",
          "type": "uint256"
        }
      ],
      "payable": false,
      "stateMutability": "view",
      "type": "function"
    },
    {
      "constant": false,
      "inputs": [
        {
          "name": "_from",
          "type": "address"
        },
        {
          "name": "_to",
          "type": "address"
        },
        {
          "name": "_typeIDs",
          "type": "uint256[]"
        },
        {
          "name": "_values",
          "type": "uint256[]"
        },
        {
          "name": "_data",
          "type": "bytes"
        }
      ],
      "name": "safeBatchTransferFrom",
      "outputs": [],
      "payable": false,
      "stateMutability": "nonpayable",
      "type": "function"
    },
    {
      "constant": true,
      "inputs": [
        {
          "name": "_typeID",
          "type": "uint256"
        }
      ],
      "name": "metaLink",
      "outputs": [
        {
          "name": "",
          "type": "string"
        }
      ],
      "payable": false,
      "stateMutability": "view",
      "type": "function"
    },
    {
      "constant": true,
      "inputs": [
        {
          "name": "_owners",
          "type": "address[]"
        },
        {
          "name": "_typeIDs",
          "type": "uint256[]"
        }
      ],
      "name": "balanceOfBatch",
      "outputs": [
        {
          "name": "",
          "type": "uint256[]"
        }
      ],
      "payable": false,
      "stateMutability": "view",
      "type": "function"
    },
    {
      "constant": true,
      "inputs": [
        {
          "name": "itemID",
          "type": "uint256"
        }
      ],
      "name": "isNonFungibleItem",
      "outputs": [
        {
          "name": "",
          "type": "bool"
        }
      ],
      "payable": false,
      "stateMutability": "pure",
      "type": "function"
    },
    {
      "constant": true,
      "inputs": [
        {
          "name": "_itemID",
          "type": "uint256"
        }
      ],
      "name": "ownerOf",
      "outputs": [
        {
          "name": "",
          "type": "address"
        }
      ],
      "payable": false,
      "stateMutability": "view",
      "type": "function"
    },
    {
      "constant": true,
      "inputs": [
        {
          "name": "_itemID",
          "type": "uint256"
        }
      ],
      "name": "getNonFungibleBaseType",
      "outputs": [
        {
          "name": "",
          "type": "uint256"
        }
      ],
      "payable": false,
      "stateMutability": "pure",
      "type": "function"
    },
    {
      "constant": true,
      "inputs": [
        {
          "name": "_typeID",
          "type": "uint256"
        }
      ],
      "name": "isNonFungibleBaseType",
      "outputs": [
        {
          "name": "",
          "type": "bool"
        }
      ],
      "payable": false,
      "stateMutability": "pure",
      "type": "function"
    },
    {
      "constant": true,
      "inputs": [
        {
          "name": "",
          "type": "uint256"
        }
      ],
      "name": "minters",
      "outputs": [
        {
          "name": "",
          "type": "address"
        }
      ],
      "payable": false,
      "stateMutability": "view",
      "type": "function"
    },
    {
      "constant": true,
      "inputs": [
        {
          "name": "_itemID",
          "type": "uint256"
        }
      ],
      "name": "getNonFungibleIndex",
      "outputs": [
        {
          "name": "",
          "type": "uint256"
        }
      ],
      "payable": false,
      "stateMutability": "pure",
      "type": "function"
    },
    {
      "constant": false,
      "inputs": [
        {
          "name": "_operator",
          "type": "address"
        },
        {
          "name": "_approved",
          "type": "bool"
        }
      ],
      "name": "setApprovalForAll",
      "outputs": [],
      "payable": false,
      "stateMutability": "nonpayable",
      "type": "function"
    },
    {
      "constant": true,
      "inputs": [
        {
          "name": "_typeID",
          "type": "uint256"
        }
      ],
      "name": "isFungible",
      "outputs": [
        {
          "name": "",
          "type": "bool"
        }
      ],
      "payable": false,
      "stateMutability": "pure",
      "type": "function"
    },
    {
      "constant": true,
      "inputs": [
        {
          "name": "",
          "type": "uint256"
        }
      ],
      "name": "totalSupplies",
      "outputs": [
        {
          "name": "",
          "type": "uint256"
        }
      ],
      "payable": false,
      "stateMutability": "view",
      "type": "function"
    },
    {
      "constant": true,
      "inputs": [
        {
          "name": "_typeID",
          "type": "uint256"
        }
      ],
      "name": "isNonFungible",
      "outputs": [
        {
          "name": "",
          "type": "bool"
        }
      ],
      "payable": false,
      "stateMutability": "pure",
      "type": "function"
    },
    {
      "constant": true,
      "inputs": [
        {
          "name": "_owner",
          "type": "address"
        },
        {
          "name": "_operator",
          "type": "address"
        }
      ],
      "name": "isApprovedForAll",
      "outputs": [
        {
          "name": "",
          "type": "bool"
        }
      ],
      "payable": false,
      "stateMutability": "view",
      "type": "function"
    },
    {
      "constant": false,
      "inputs": [
        {
          "name": "_from",
          "type": "address"
        },
        {
          "name": "_to",
          "type": "address"
        },
        {
          "name": "_typeID",
          "type": "uint256"
        },
        {
          "name": "_value",
          "type": "uint256"
        },
        {
          "name": "_data",
          "type": "bytes"
        }
      ],
      "name": "safeTransferFrom",
      "outputs": [],
      "payable": false,
      "stateMutability": "nonpayable",
      "type": "function"
    },
    {
      "constant": false,
      "inputs": [
        {
          "name": "_froms",
          "type": "address[]"
        },
        {
          "name": "_tos",
          "type": "address[]"
        },
        {
          "name": "_typeIDs",
          "type": "uint256[]"
        },
        {
          "name": "_values",
          "type": "uint256[]"
        },
        {
          "name": "_data",
          "type": "bytes"
        }
      ],
      "name": "safeFullBatchTransferFrom",
      "outputs": [],
      "payable": false,
      "stateMutability": "nonpayable",
      "type": "function"
    },
    {
      "anonymous": false,
      "inputs": [
        {
          "indexed": true,
          "name": "_owner",
          "type": "address"
        },
        {
          "indexed": true,
          "name": "_operator",
          "type": "address"
        },
        {
          "indexed": false,
          "name": "_approved",
          "type": "bool"
        }
      ],
      "name": "ApprovalForAll",
      "type": "event"
    },
    {
      "anonymous": false,
      "inputs": [
        {
          "indexed": true,
          "name": "_operator",
          "type": "address"
        },
        {
          "indexed": true,
          "name": "_from",
          "type": "address"
        },
        {
          "indexed": true,
          "name": "_to",
          "type": "address"
        },
        {
          "indexed": false,
          "name": "_typeID",
          "type": "uint256"
        },
        {
          "indexed": false,
          "name": "_value",
          "type": "uint256"
        }
      ],
      "name": "TransferSingle",
      "type": "event"
    },
    {
      "anonymous": false,
      "inputs": [
        {
          "indexed": true,
          "name": "_operator",
          "type": "address"
        },
        {
          "indexed": true,
          "name": "_from",
          "type": "address"
        },
        {
          "indexed": true,
          "name": "_to",
          "type": "address"
        },
        {
          "indexed": false,
          "name": "_typeIDs",
          "type": "uint256[]"
        },
        {
          "indexed": false,
          "name": "_values",
          "type": "uint256[]"
        }
      ],
      "name": "TransferBatch",
      "type": "event"
    },
    {
      "anonymous": false,
      "inputs": [
        {
          "indexed": true,
          "name": "_operator",
          "type": "address"
        },
        {
          "indexed": false,
          "name": "_froms",
          "type": "address[]"
        },
        {
          "indexed": false,
          "name": "_tos",
          "type": "address[]"
        },
        {
          "indexed": false,
          "name": "_typeIDs",
          "type": "uint256[]"
        },
        {
          "indexed": false,
          "name": "_values",
          "type": "uint256[]"
        },
        {
          "indexed": true,
          "name": "_key",
          "type": "bytes"
        }
      ],
      "name": "TransferFullBatch",
      "type": "event"
    },
    {
      "anonymous": false,
      "inputs": [
        {
          "indexed": false,
          "name": "_value",
          "type": "string"
        },
        {
          "indexed": true,
          "name": "_typeID",
          "type": "uint256"
        }
      ],
      "name": "URI",
      "type": "event"
    },
    {
      "anonymous": false,
      "inputs": [
        {
          "indexed": true,
          "name": "_typeID",
          "type": "uint256"
        },
        {
          "indexed": false,
          "name": "_minter",
          "type": "address"
        }
      ],
      "name": "SetMinter",
      "type": "event"
    },
    {
      "constant": false,
      "inputs": [
        {
          "name": "_metaLink",
          "type": "string"
        },
        {
          "name": "_isNF",
          "type": "bool"
        }
      ],
      "name": "create",
      "outputs": [
        {
          "name": "_typeID",
          "type": "uint256"
        }
      ],
      "payable": false,
      "stateMutability": "nonpayable",
      "type": "function"
    },
    {
      "constant": true,
      "inputs": [
        {
          "name": "_typeID",
          "type": "uint256"
        }
      ],
      "name": "totalSupply",
      "outputs": [
        {
          "name": "",
          "type": "uint256"
        }
      ],
      "payable": false,
      "stateMutability": "view",
      "type": "function"
    },
    {
      "constant": false,
      "inputs": [
        {
          "name": "_typeID",
          "type": "uint256"
        },
        {
          "name": "_tos",
          "type": "address[]"
        }
      ],
      "name": "mintNonFungible",
      "outputs": [],
      "payable": false,
      "stateMutability": "nonpayable",
      "type": "function"
    },
    {
      "constant": false,
      "inputs": [
        {
          "name": "_typeID",
          "type": "uint256"
        },
        {
          "name": "_tos",
          "type": "address[]"
        },
        {
          "name": "_values",
          "type": "uint256[]"
        }
      ],
      "name": "mintFungible",
      "outputs": [],
      "payable": false,
      "stateMutability": "nonpayable",
      "type": "function"
    },
    {
      "constant": false,
      "inputs": [
        {
          "name": "_itemID",
          "type": "uint256"
        },
        {
          "name": "_from",
          "type": "address"
        }
      ],
      "name": "burnNonFungible",
      "outputs": [],
      "payable": false,
      "stateMutability": "nonpayable",
      "type": "function"
    },
    {
      "constant": false,
      "inputs": [
        {
          "name": "_typeID",
          "type": "uint256"
        },
        {
          "name": "_from",
          "type": "address"
        },
        {
          "name": "_value",
          "type": "uint256"
        }
      ],
      "name": "burnFungible",
      "outputs": [],
      "payable": false,
      "stateMutability": "nonpayable",
      "type": "function"
    },
    {
      "constant": false,
      "inputs": [
        {
          "name": "_typeID",
          "type": "uint256"
        },
        {
          "name": "_to",
          "type": "address"
        }
      ],
      "name": "setMinter",
      "outputs": [],
      "payable": false,
      "stateMutability": "nonpayable",
      "type": "function"
    }
  ],
  "bytecode": "0x608060405234801561001057600080fd5b50612e89806100206000396000f3fe6080604052600436106101365760003560e01c63ffffffff168062fdd58e1461013b57806301c376a01461018657806308d7d469146102255780632eb2c2d61461024f57806346cb2f1b1461038b5780634e1273f4146103b55780635e81b958146104d45780636352211e146105125780636f969c2d146105585780637269a3271461058257806378b27221146105ac5780638623ec7b146106825780639cca1c64146106ac578063a048046b146106d6578063a22cb4651461070f578063adebf6f21461074a578063b54fa47414610774578063bd85b0391461079e578063beafd19f146107c8578063cc10e40114610807578063e44591f014610886578063e985e9c5146108b0578063f242432a146108eb578063f4b781cb1461098d578063f5e9942114610b52578063f941908814610b8b575b600080fd5b34801561014757600080fd5b506101746004803603604081101561015e57600080fd5b50600160a060020a038135169060200135610c0f565b60408051918252519081900360200190f35b34801561019257600080fd5b506101b0600480360360208110156101a957600080fd5b5035610c7f565b6040805160208082528351818301528351919283929083019185019080838360005b838110156101ea5781810151838201526020016101d2565b50505050905090810190601f1680156102175780820380516001836020036101000a031916815260200191505b509250505060405180910390f35b34801561023157600080fd5b506101746004803603602081101561024857600080fd5b5035610d1a565b34801561025b57600080fd5b50610389600480360360a081101561027257600080fd5b600160a060020a0382358116926020810135909116918101906060810160408201356401000000008111156102a657600080fd5b8201836020820111156102b857600080fd5b803590602001918460208302840111640100000000831117156102da57600080fd5b9193909290916020810190356401000000008111156102f857600080fd5b82018360208201111561030a57600080fd5b8035906020019184602083028401116401000000008311171561032c57600080fd5b91939092909160208101903564010000000081111561034a57600080fd5b82018360208201111561035c57600080fd5b8035906020019184600183028401116401000000008311171561037e57600080fd5b509092509050610d2c565b005b34801561039757600080fd5b506101b0600480360360208110156103ae57600080fd5b5035611291565b3480156103c157600080fd5b50610484600480360360408110156103d857600080fd5b8101906020810181356401000000008111156103f357600080fd5b82018360208201111561040557600080fd5b8035906020019184602083028401116401000000008311171561042757600080fd5b91939092909160208101903564010000000081111561044557600080fd5b82018360208201111561045757600080fd5b8035906020019184602083028401116401000000008311171561047957600080fd5b509092509050611332565b60408051602080825283518183015283519192839290830191858101910280838360005b838110156104c05781810151838201526020016104a8565b505050509050019250505060405180910390f35b3480156104e057600080fd5b506104fe600480360360208110156104f757600080fd5b5035611428565b604080519115158252519081900360200190f35b34801561051e57600080fd5b5061053c6004803603602081101561053557600080fd5b5035611452565b60408051600160a060020a039092168252519081900360200190f35b34801561056457600080fd5b506101746004803603602081101561057b57600080fd5b503561146d565b34801561058e57600080fd5b506104fe600480360360208110156105a557600080fd5b5035611483565b3480156105b857600080fd5b50610389600480360360608110156105cf57600080fd5b813591908101906040810160208201356401000000008111156105f157600080fd5b82018360208201111561060357600080fd5b8035906020019184602083028401116401000000008311171561062557600080fd5b91939092909160208101903564010000000081111561064357600080fd5b82018360208201111561065557600080fd5b8035906020019184602083028401116401000000008311171561067757600080fd5b5090925090506114a5565b34801561068e57600080fd5b5061053c600480360360208110156106a557600080fd5b503561167d565b3480156106b857600080fd5b50610174600480360360208110156106cf57600080fd5b5035611698565b3480156106e257600080fd5b50610389600480360360408110156106f957600080fd5b5080359060200135600160a060020a03166116ad565b34801561071b57600080fd5b506103896004803603604081101561073257600080fd5b50600160a060020a03813516906020013515156117cf565b34801561075657600080fd5b506104fe6004803603602081101561076d57600080fd5b503561183d565b34801561078057600080fd5b506101746004803603602081101561079757600080fd5b5035611847565b3480156107aa57600080fd5b50610174600480360360208110156107c157600080fd5b5035611859565b3480156107d457600080fd5b50610389600480360360608110156107eb57600080fd5b50803590600160a060020a03602082013516906040013561186b565b34801561081357600080fd5b506101746004803603604081101561082a57600080fd5b81019060208101813564010000000081111561084557600080fd5b82018360208201111561085757600080fd5b8035906020019184600183028401116401000000008311171561087957600080fd5b91935091503515156119d5565b34801561089257600080fd5b506104fe600480360360208110156108a957600080fd5b5035611ac7565b3480156108bc57600080fd5b506104fe600480360360408110156108d357600080fd5b50600160a060020a0381358116916020013516611ad3565b3480156108f757600080fd5b50610389600480360360a081101561090e57600080fd5b600160a060020a03823581169260208101359091169160408201359160608101359181019060a08101608082013564010000000081111561094e57600080fd5b82018360208201111561096057600080fd5b8035906020019184600183028401116401000000008311171561098257600080fd5b509092509050611b01565b34801561099957600080fd5b50610389600480360360a08110156109b057600080fd5b8101906020810181356401000000008111156109cb57600080fd5b8201836020820111156109dd57600080fd5b803590602001918460208302840111640100000000831117156109ff57600080fd5b919390929091602081019035640100000000811115610a1d57600080fd5b820183602082011115610a2f57600080fd5b80359060200191846020830284011164010000000083111715610a5157600080fd5b919390929091602081019035640100000000811115610a6f57600080fd5b820183602082011115610a8157600080fd5b80359060200191846020830284011164010000000083111715610aa357600080fd5b919390929091602081019035640100000000811115610ac157600080fd5b820183602082011115610ad357600080fd5b80359060200191846020830284011164010000000083111715610af557600080fd5b919390929091602081019035640100000000811115610b1357600080fd5b820183602082011115610b2557600080fd5b80359060200191846001830284011164010000000083111715610b4757600080fd5b509092509050611e54565b348015610b5e57600080fd5b5061038960048036036040811015610b7557600080fd5b5080359060200135600160a060020a0316612375565b348015610b9757600080fd5b5061038960048036036040811015610bae57600080fd5b81359190810190604081016020820135640100000000811115610bd057600080fd5b820183602082011115610be257600080fd5b80359060200191846020830284011164010000000083111715610c0457600080fd5b509092509050612690565b6000610c1a82611428565b15610c5457600082815260026020526040902054600160a060020a03848116911614610c47576000610c4a565b60015b60ff169050610c79565b506000818152600660209081526040808320600160a060020a03861684529091529020545b92915050565b60036020908152600091825260409182902080548351601f600260001961010060018616150201909316929092049182018490048402810184019094528084529091830182828015610d125780601f10610ce757610100808354040283529160200191610d12565b820191906000526020600020905b815481529060010190602001808311610cf557829003601f168201915b505050505081565b60046020526000908152604090205481565b600160a060020a0387161515610d8c576040805160e560020a62461bcd02815260206004820152601b60248201527f63616e6e6f742073656e6420746f207a65726f20616464726573730000000000604482015290519081900360640190fd5b848314610de3576040805160e560020a62461bcd02815260206004820152601760248201527f4172726179206c656e677468206d757374206d61746368000000000000000000604482015290519081900360640190fd5b600160a060020a038816331480610e225750600160a060020a038816600090815260076020908152604080832033845290915290205460ff1615156001145b1515610e9e576040805160e560020a62461bcd02815260206004820152602f60248201527f4e656564206f70657261746f7220617070726f76616c20666f7220337264207060448201527f61727479207472616e73666572732e0000000000000000000000000000000000606482015290519081900360840190fd5b60005b8581101561111a576000878783818110610eb757fe5b90506020020135905060008686848181101515610ed057fe5b905060200201359050610ee282611ac7565b1561103657600082815260026020526040902054600160a060020a038c8116911614610f0d57600080fd5b60008281526002602052604081208054600160a060020a031916600160a060020a038d16179055610f3d8361146d565b9050610f8960016006600084815260200190815260200160002060008f600160a060020a0316600160a060020a031681526020019081526020016000205461286890919063ffffffff16565b6006600083815260200190815260200160002060008e600160a060020a0316600160a060020a031681526020019081526020016000208190555061100d60016006600084815260200190815260200160002060008e600160a060020a0316600160a060020a03168152602001908152602001600020546128c890919063ffffffff16565b6000918252600660209081526040808420600160a060020a038f16855290915290912055611110565b6000828152600660209081526040808320600160a060020a038f168452909152902054611069908263ffffffff61286816565b6006600084815260200190815260200160002060008d600160a060020a0316600160a060020a03168152602001908152602001600020819055506110ec6006600084815260200190815260200160002060008c600160a060020a0316600160a060020a0316815260200190815260200160002054826128c890919063ffffffff16565b6000838152600660209081526040808320600160a060020a038f1684529091529020555b5050600101610ea1565b5086600160a060020a031688600160a060020a031633600160a060020a03167f4a39dc06d4c0dbc64b70af90fd698a233a518aa5d07e595d983b8c0526c8f7fb898989896040518080602001806020018381038352878782818152602001925060200280828437600083820152601f01601f19169091018481038352858152602090810191508690860280828437600083820152604051601f909101601f19169092018290039850909650505050505050a46111de87600160a060020a031661292c565b156112875761128733898989898080602002602001604051908101604052809392919081815260200183836020028082843760009201919091525050604080516020808d0282810182019093528c82529093508c92508b91829185019084908082843760009201919091525050604080516020601f8c018190048102820181019092528a815292508a915089908190840183828082843760009201919091525061293492505050565b5050505050505050565b60008181526003602090815260409182902080548351601f60026000196101006001861615020190931692909204918201849004840281018401909452808452606093928301828280156113265780601f106112fb57610100808354040283529160200191611326565b820191906000526020600020905b81548152906001019060200180831161130957829003601f168201915b50505050509050919050565b606083821461138b576040805160e560020a62461bcd02815260206004820152601f60248201527f4372656469743a204172726179206c656e677468206d757374206d6174636800604482015290519081900360640190fd5b6040805185815260208087028201019091526060908580156113b7578160200160208202803883390190505b50905060005b8581101561141e576113fe8787838181106113d457fe5b90506020020135600160a060020a031686868481811015156113f257fe5b90506020020135610c0f565b828281518110151561140c57fe5b602090810290910101526001016113bd565b5095945050505050565b600061143382611ac7565b8015610c795750506fffffffffffffffffffffffffffffffff16151590565b600090815260026020526040902054600160a060020a031690565b6fffffffffffffffffffffffffffffffff191690565b600061148e82611ac7565b8015610c79575061149e82611698565b1592915050565b6000858152600160205260409020548590600160a060020a031633146114ca57600080fd5b6114d38661183d565b15156114de57600080fd5b838214611535576040805160e560020a62461bcd02815260206004820152601f60248201527f4372656469743a204172726179206c656e677468206d757374206d6174636800604482015290519081900360640190fd5b60005b8481101561167457600086868381811061154e57fe5b90506020020135600160a060020a031690506000858584818110151561157057fe5b60008c8152600660209081526040808320600160a060020a03891684528252909120549102929092013592506115ae9183915063ffffffff6128c816565b60008a8152600660209081526040808320600160a060020a03871684528252808320939093558b82526005905220546115ed908263ffffffff6128c816565b60008a81526005602090815260408083209390935582518c81529081018490528251600160a060020a038616933392600080516020612dfe833981519152929081900390910190a461164782600160a060020a031661292c565b1561166a5761166a3333848c856020604051908101604052806000815250612b89565b5050600101611538565b50505050505050565b600160205260009081526040902054600160a060020a031681565b6fffffffffffffffffffffffffffffffff1690565b6000828152600160205260409020548290600160a060020a031633146116d257600080fd5b600083815260016020526040902054600160a060020a038381169116141561176a576040805160e560020a62461bcd02815260206004820152603160248201527f4372656469743a2063616e6e6f74207365742063757272656e74206d696e746560448201527f722061732061206e6577206d696e746572000000000000000000000000000000606482015290519081900360840190fd5b6000838152600160209081526040918290208054600160a060020a031916600160a060020a0386169081179091558251908152915185927f154933cf3e220494f8a0abb0ebf8ec33fcba21e15da759d777aa8418cfd7ff1892908290030190a2505050565b336000818152600760209081526040808320600160a060020a03871680855290835292819020805460ff1916861515908117909155815190815290519293927f17307eab39ab6107e8899845ad3d59bd9653f200f220920489ca2b5937696c31929181900390910190a35050565b60ff60020a161590565b60056020526000908152604090205481565b60009081526005602052604090205490565b6118748361183d565b151561187f57600080fd5b600160a060020a0382163314806118be5750600160a060020a038216600090815260076020908152604080832033845290915290205460ff1615156001145b1515611916576040805160e560020a62461bcd0281526020600482015260376024820152600080516020612e1e8339815191526044820152600080516020612e3e833981519152606482015290519081900360840190fd5b6000838152600660209081526040808320600160a060020a0386168452909152902054611949908263ffffffff61286816565b6000848152600660209081526040808320600160a060020a0387168452825280832093909355858252600590522054611988908263ffffffff61286816565b600084815260056020908152604080832093909355825186815290810184905282519192600160a060020a038616923392600080516020612dfe83398151915292908290030190a4505050565b600080546001019081905560801b81156119f05760ff60020a175b60008181526001602090815260408083208054600160a060020a031916339081179091558151858152928301849052815184939192600080516020612dfe833981519152928290030190a46000831115611a5f576000818152600360205260409020611a5d908585612d62565b505b807f6bb7ff708619ba0610cba295a58592e0451dee2622938c8755667688daf3529b858560405180806020018281038252848482818152602001925080828437600083820152604051601f909101601f19169092018290039550909350505050a29392505050565b60ff60020a9081161490565b600160a060020a03918216600090815260076020908152604080832093909416825291909152205460ff1690565b600160a060020a0385161515611b87576040805160e560020a62461bcd02815260206004820152602360248201527f4372656469743a2063616e6e6f742073656e6420746f207a65726f206164647260448201527f6573730000000000000000000000000000000000000000000000000000000000606482015290519081900360840190fd5b600160a060020a038616331480611bc65750600160a060020a038616600090815260076020908152604080832033845290915290205460ff1615156001145b1515611c1e576040805160e560020a62461bcd0281526020600482015260376024820152600080516020612e1e8339815191526044820152600080516020612e3e833981519152606482015290519081900360840190fd5b611c2784611ac7565b15611d1857600084815260026020526040902054600160a060020a03878116911614611c5257600080fd5b60008481526002602052604081208054600160a060020a031916600160a060020a038816179055611c828561146d565b6000818152600660209081526040808320600160a060020a038c168452909152902054909150611cb8908563ffffffff61286816565b6000828152600660209081526040808320600160a060020a038c81168552925280832093909355881681522054611cef90856128c8565b6000918252600660209081526040808420600160a060020a038a16855290915290912055611da6565b6000848152600660209081526040808320600160a060020a038a168452909152902054611d4b908463ffffffff61286816565b6000858152600660209081526040808320600160a060020a038b81168552925280832093909355871681522054611d8290846128c8565b6000858152600660209081526040808320600160a060020a038a1684529091529020555b84600160a060020a031686600160a060020a031633600160a060020a0316600080516020612dfe8339815191528787604051808381526020018281526020019250505060405180910390a4611e0385600160a060020a031661292c565b15611e4c57611e4c338787878787878080601f016020809104026020016040519081016040528093929190818152602001838380828437600092019190915250612b8992505050565b505050505050565b8887148015611e6257508885145b8015611e6d57508883145b1515611ec3576040805160e560020a62461bcd02815260206004820152601f60248201527f4372656469743a204172726179206c656e677468206d757374206d6174636800604482015290519081900360640190fd5b60005b8981101561224c5760008b8b83818110611edc57fe5b90506020020135600160a060020a0316905060008a8a848181101515611efe57fe5b90506020020135600160a060020a0316905060008989858181101515611f2057fe5b90506020020135905060008888868181101515611f3957fe5b6020029190910135915050600160a060020a0383161515611fca576040805160e560020a62461bcd02815260206004820152602360248201527f4372656469743a2063616e6e6f742073656e6420746f207a65726f206164647260448201527f6573730000000000000000000000000000000000000000000000000000000000606482015290519081900360840190fd5b600160a060020a0384163314806120095750600160a060020a038416600090815260076020908152604080832033845290915290205460ff1615156001145b1515612061576040805160e560020a62461bcd0281526020600482015260376024820152600080516020612e1e8339815191526044820152600080516020612e3e833981519152606482015290519081900360840190fd5b61206a82611ac7565b1561215357600082815260026020526040902054600160a060020a0385811691161461209557600080fd5b60006120a08361146d565b60008481526002602090815260408083208054600160a060020a031916600160a060020a038a81169190911790915584845260068352818420908a1684529091529020549091506120f2906001612868565b6000828152600660209081526040808320600160a060020a038a8116855292528083209390935586168152205461212a9060016128c8565b6000918252600660209081526040808420600160a060020a0388168552909152909120556121e2565b6000828152600660209081526040808320600160a060020a0388168452909152902054612186908263ffffffff61286816565b6000838152600660209081526040808320600160a060020a0389811685529252808320939093558516815220546121be9082906128c8565b6000838152600660209081526040808320600160a060020a03881684529091529020555b6121f483600160a060020a031661292c565b1561223d5761223d33858585858c8c8080601f016020809104026020016040519081016040528093929190818152602001838380828437600092019190915250612b8992505050565b50505050806001019050611ec6565b508181604051808383808284378083019250505092505050604051809103902033600160a060020a03167fb2bbad7ba6f87956dcb373f8d6196043547f5fe76a0fef13d3c8dbfb43d2ff1a8c8c8c8c8c8c8c8c604051808060200180602001806020018060200185810385528d8d82818152602001925060200280828437600083820152601f01601f191690910186810385528b8152602090810191508c908c0280828437600083820152601f01601f19169091018681038452898152602090810191508a908a0280828437600083820152601f01601f19169091018681038352878152602090810191508890880280828437600083820152604051601f909101601f19169092018290039e50909c50505050505050505050505050a350505050505050505050565b61237e82611ac7565b15156123fa576040805160e560020a62461bcd02815260206004820152603660248201527f4372656469743a206173736574206265696e67206275726e6564206973206e6f60448201527f742061206e6f6e2d66756e6769626c6520617373657400000000000000000000606482015290519081900360840190fd5b61240382611428565b151561247f576040805160e560020a62461bcd02815260206004820152603860248201527f4372656469743a206173736574206265696e67206275726e6564206973206e6f60448201527f742061206e6f6e2d66756e6769626c65206974656d2069640000000000000000606482015290519081900360840190fd5b600160a060020a0381163314806124be5750600160a060020a038116600090815260076020908152604080832033845290915290205460ff1615156001145b1515612516576040805160e560020a62461bcd0281526020600482015260376024820152600080516020612e1e8339815191526044820152600080516020612e3e833981519152606482015290519081900360840190fd5b600030600160a060020a0316636f969c2d846040518263ffffffff1660e01b81526004018082815260200191505060206040518083038186803b15801561255c57600080fd5b505afa158015612570573d6000803e3d6000fd5b505050506040513d602081101561258657600080fd5b505160008481526002602090815260408083208054600160a060020a031916905583835260068252808320600160a060020a03871684529091529020549091506125d790600163ffffffff61286816565b6000828152600660209081526040808320600160a060020a038716845282528083209390935583825260059052205461261790600163ffffffff61286816565b60008281526005602052604080822092909255848152205461264090600163ffffffff61286816565b600084815260056020908152604080832093909355825186815260019181019190915282519192600160a060020a038616923392600080516020612dfe83398151915292908290030190a4505050565b6000838152600160205260409020548390600160a060020a031633146126b557600080fd5b6126be84611ac7565b15156126c957600080fd5b60008481526004602052604090205460018101906126ee90849063ffffffff6128c816565b6000868152600460205260408120919091555b83811015611e4c57600085858381811061271757fe5b8486018a17600081815260026020908152604080832080549583029790970135600160a060020a0316600160a060020a031990951685179096558c82526006815285822084835290529390932054909350612774915060016128c8565b6000898152600660209081526040808320600160a060020a03871684528252808320939093558a82526005905220546127b490600163ffffffff6128c816565b6000898152600560205260408082209290925582815220546127dd90600163ffffffff6128c816565b60008281526005602090815260408083209390935582518481526001918101919091528251600160a060020a038616933392600080516020612dfe833981519152929081900390910190a461283a82600160a060020a031661292c565b1561285e5761285e3333848460016020604051908101604052806000815250612b89565b5050600101612701565b6000828211156128c2576040805160e560020a62461bcd02815260206004820152601e60248201527f536166654d6174683a207375627472616374696f6e206f766572666c6f770000604482015290519081900360640190fd5b50900390565b600082820183811015612925576040805160e560020a62461bcd02815260206004820152601b60248201527f536166654d6174683a206164646974696f6e206f766572666c6f770000000000604482015290519081900360640190fd5b9392505050565b6000903b1190565b63baf5f22860e01b7bffffffffffffffffffffffffffffffffffffffffffffffffffffffff191684600160a060020a031663baf5f22888888787876040518663ffffffff1660e01b81526004018086600160a060020a0316600160a060020a0316815260200185600160a060020a0316600160a060020a03168152602001806020018060200180602001848103845287818151815260200191508051906020019060200280838360005b838110156129f65781810151838201526020016129de565b50505050905001848103835286818151815260200191508051906020019060200280838360005b83811015612a35578181015183820152602001612a1d565b50505050905001848103825285818151815260200191508051906020019080838360005b83811015612a71578181015183820152602001612a59565b50505050905090810190601f168015612a9e5780820380516001836020036101000a031916815260200191505b5098505050505050505050602060405180830381600087803b158015612ac357600080fd5b505af1158015612ad7573d6000803e3d6000fd5b505050506040513d6020811015612aed57600080fd5b50517bffffffffffffffffffffffffffffffffffffffffffffffffffffffff191614611e4c576040805160e560020a62461bcd02815260206004820152603b60248201527f636f6e74726163742072657475726e656420616e20756e6b6e6f776e2076616c60448201527f75652066726f6d206f6e45455232426174636852656365697665640000000000606482015290519081900360840190fd5b6309a23c2960e01b7bffffffffffffffffffffffffffffffffffffffffffffffffffffffff191684600160a060020a03166309a23c2988888787876040518663ffffffff1660e01b81526004018086600160a060020a0316600160a060020a0316815260200185600160a060020a0316600160a060020a0316815260200184815260200183815260200180602001828103825283818151815260200191508051906020019080838360005b83811015612c4c578181015183820152602001612c34565b50505050905090810190601f168015612c795780820380516001836020036101000a031916815260200191505b509650505050505050602060405180830381600087803b158015612c9c57600080fd5b505af1158015612cb0573d6000803e3d6000fd5b505050506040513d6020811015612cc657600080fd5b50517bffffffffffffffffffffffffffffffffffffffffffffffffffffffff191614611e4c576040805160e560020a62461bcd02815260206004820152603660248201527f636f6e74726163742072657475726e656420616e20756e6b6e6f776e2076616c60448201527f75652066726f6d206f6e45455232526563656976656400000000000000000000606482015290519081900360840190fd5b828054600181600116156101000203166002900490600052602060002090601f016020900481019282601f10612da35782800160ff19823516178555612dd0565b82800160010185558215612dd0579182015b82811115612dd0578235825591602001919060010190612db5565b50612ddc929150612de0565b5090565b612dfa91905b80821115612ddc5760008155600101612de6565b9056fec3d58168c5ae7397731d063d5bbf3d657854427343f4c083240f7aacaa2d0f624372656469743a204e656564206f70657261746f7220617070726f76616c20666f7220337264207061727479207472616e73666572732e000000000000000000a165627a7a72305820f265607b7a854041c5d4b5ee252a20cd982ae337ce812eb18d3473739c0aee920029",
  "source": "pragma solidity ^0.5.0;\n\nimport \"./EER2A.sol\";\nimport \"./IEER2B.sol\";\n\n\ncontract EER2B is IEER2B, EER2A {\n    // This function only creates the type.\n    function create(string calldata _metaLink, bool _isNF) external returns (uint256 _typeID) {\n        // Store the type in the upper 128 bits\n        _typeID = (++nonce << 128);\n\n        // Set a flag if this is an NFI.\n        if (_isNF) _typeID = _typeID | TYPE_NF_BIT;\n\n        // This will allow restricted access to minters.\n        minters[_typeID] = msg.sender;\n\n        // emit a Transfer event with Create semantic to help with discovery.\n        emit TransferSingle(msg.sender, address(0x0), address(0x0), _typeID, 0);\n\n        if (bytes(_metaLink).length > 0) metalinks[_typeID] = _metaLink;\n        emit URI(_metaLink, _typeID);\n    }\n\n    /**\n        @notice Get the total supply of a Credit.\n        @param _typeID   ID of the Credit type\n        @return        The total supply of the Token type requested\n     */\n    function totalSupply(uint256 _typeID) external view returns (uint256) {\n        return totalSupplies[_typeID];\n    }\n\n    function mintNonFungible(uint256 _typeID, address[] calldata _tos)\n        external\n        minterOnly(_typeID)\n    {\n        // No need to check this is a nf type rather than an typeID since\n        // minterOnly() will only let a type pass through.\n        require(isNonFungible(_typeID));\n\n        // Index are 1-based.\n        uint256 index = maxIndex[_typeID] + 1;\n        maxIndex[_typeID] = _tos.length.add(maxIndex[_typeID]);\n\n        for (uint256 i = 0; i < _tos.length; ++i) {\n            address to = _tos[i];\n            uint256 typeID = _typeID | (index + i);\n\n            nfOwners[typeID] = to;\n            balances[_typeID][to] = balances[_typeID][to].add(1);\n            totalSupplies[_typeID] = totalSupplies[_typeID].add(1);\n            totalSupplies[typeID] = totalSupplies[typeID].add(1);\n\n            emit TransferSingle(msg.sender, address(0x0), to, typeID, 1);\n\n            if (to.isContract()) {\n                _doSafeTransferAcceptanceCheck(msg.sender, msg.sender, to, typeID, 1, \"\");\n            }\n        }\n    }\n\n    function mintFungible(uint256 _typeID, address[] calldata _tos, uint256[] calldata _values)\n        external\n        minterOnly(_typeID)\n    {\n        require(isFungible(_typeID));\n        require(_tos.length == _values.length, \"Credit: Array length must match\");\n\n        for (uint256 i = 0; i < _tos.length; ++i) {\n            address to = _tos[i];\n            uint256 value = _values[i];\n\n            // Grant the items to the caller\n            balances[_typeID][to] = value.add(balances[_typeID][to]);\n            totalSupplies[_typeID] = totalSupplies[_typeID].add(value);\n\n            // Emit the Transfer/Mint event.\n            // the 0x0 source address implies a mint\n            // It will also provide the circulating supply info.\n            emit TransferSingle(msg.sender, address(0x0), to, _typeID, value);\n\n            if (to.isContract()) {\n                _doSafeTransferAcceptanceCheck(msg.sender, msg.sender, to, _typeID, value, \"\");\n            }\n        }\n    }\n\n    /**\n        Delete `_value` of Credit `_itemID` from the world.\n        @param _itemID  Item of non-fungible credit type\n        @param _from Source address\n    */\n    function burnNonFungible(uint256 _itemID, address _from) external {\n        require(isNonFungible(_itemID), \"Credit: asset being burned is not a non-fungible asset\");\n        require(\n            isNonFungibleItem(_itemID),\n            \"Credit: asset being burned is not a non-fungible item id\"\n        );\n        require(\n            _from == msg.sender || operatorApproval[_from][msg.sender] == true,\n            \"Credit: Need operator approval for 3rd party transfers.\"\n        );\n\n        uint256 _type = this.getNonFungibleBaseType(_itemID);\n        nfOwners[_itemID] = address(0);\n        balances[_type][_from] = balances[_type][_from].sub(1);\n        totalSupplies[_type] = totalSupplies[_type].sub(1);\n        totalSupplies[_itemID] = totalSupplies[_itemID].sub(1);\n\n        emit TransferSingle(msg.sender, _from, address(0), _itemID, 1);\n    }\n\n    /**\n        Delete `_value` of Credit `_typeID` from the world.\n        @param _typeID  Credit type\n        @param _value Burn Credit quantities\n        @param _from Source address\n    */\n    function burnFungible(uint256 _typeID, address _from, uint256 _value) external {\n        require(isFungible(_typeID));\n        require(\n            _from == msg.sender || operatorApproval[_from][msg.sender] == true,\n            \"Credit: Need operator approval for 3rd party transfers.\"\n        );\n\n        balances[_typeID][_from] = balances[_typeID][_from].sub(_value);\n        totalSupplies[_typeID] = totalSupplies[_typeID].sub(_value);\n\n        emit TransferSingle(msg.sender, _from, address(0), _typeID, _value);\n    }\n\n    /**\n        give `_type` creator authorized to `_minter`.\n        @param _typeID  Credit _typeID (when credit is fungible) or _type (when credit is non-fungible)\n        @param _to New minter, in case of address 0 the authorized will be locked forever\n    */\n    function setMinter(uint256 _typeID, address _to) external minterOnly(_typeID) {\n        require(minters[_typeID] != _to, \"Credit: cannot set current minter as a new minter\");\n        minters[_typeID] = _to;\n\n        emit SetMinter(_typeID, _to);\n    }\n}\n",
  "sourcePath": "@Evrynetlabs/credit-contract/contracts/EER2B.sol",
  "compiler": {
    "name": "solc",
    "version": "0.5.0+commit.1d4f565a.Emscripten.clang"
  },
  "schemaVersion": "3.0.19",
  "updatedAt": "2020-04-10T04:27:12.003Z",
  "devdoc": {
    "methods": {
      "balanceOf(address,uint256)": {
        "details": "EER2 balanceOf function",
        "params": {
          "_owner": "The address of the token holder",
          "_typeID": "ID of the Token"
        },
        "return": "The _owner's balance of the Token type requested"
      },
      "balanceOfBatch(address[],uint256[])": {
        "details": "EER2 balanceOfBatch function",
        "params": {
          "_owners": "The addresses of the token holders",
          "_typeIDs": "ID of the Tokens"
        },
        "return": "The _owner's balance of the Token types requested (i.e. balance for each (owner, typeID) pair)"
      },
      "burnFungible(uint256,address,uint256)": {
        "params": {
          "_from": "Source address",
          "_typeID": "Credit type",
          "_value": "Burn Credit quantities"
        }
      },
      "burnNonFungible(uint256,address)": {
        "params": {
          "_from": "Source address",
          "_itemID": "Item of non-fungible credit type"
        }
      },
      "isApprovedForAll(address,address)": {
        "params": {
          "_operator": "Address of authorized operator",
          "_owner": "The owner of the Tokens"
        },
        "return": "True if the operator is approved, false if not"
      },
      "safeBatchTransferFrom(address,address,uint256[],uint256[],bytes)": {
        "details": "Caller must be approved to manage the tokens being transferred out of the `_from` account. MUST revert if `_to` is the zero address. MUST revert if length of `_typeIDs` is not the same as length of `_values`. MUST revert if any of the balance(s) of the holder(s) for token(s) in `_typeIDs` is lower than the respective amount(s) in `_values` sent to the recipient. MUST revert on any other error. MUST emit `TransferSingle` or `TransferBatch` event(s).",
        "params": {
          "_data": "Data sending to event logs",
          "_from": "Source address",
          "_to": "Target address",
          "_typeIDs": "IDs of each token type (order and length must match _values array)",
          "_values": "Transfer amounts per token type (order and length must match _typeIDs array)"
        }
      },
      "safeFullBatchTransferFrom(address[],address[],uint256[],uint256[],bytes)": {
        "details": "Caller must be approved or be an owner of the credit being transferred. MUST be revert if the `_typeID` is invalid. MUST be revert if no authorized to transfer. MUST be revert if `_from`'s `_typeID` balance less than `_value`. MUST be revert if `_from` or `_to` is the zero address. MUST be revert if `_to` is a smart contract but does not implement EER2TokenReceiver. MUST be revert if number of `_froms` `_tos` `_typeIDs` and `_values` does not eqaul. MUST emit TransferFullBatch event.",
        "params": {
          "_data": "Data sending to event logs",
          "_froms": "List of Source addresses",
          "_tos": "List of Target addresses",
          "_typeIDs": "List of ID of the credit types",
          "_values": "List of Transfer amounts"
        }
      },
      "safeTransferFrom(address,address,uint256,uint256,bytes)": {
        "details": "Caller must be approved to manage the tokens being transferred out of the `_from` account. MUST revert if `_to` is the zero address. MUST revert if balance of holder for token `_typeID` is lower than the `_value` sent. MUST revert on any other error. MUST emit the `TransferSingle` event. ",
        "params": {
          "_data": "Data sending to event logs",
          "_from": "Source address",
          "_to": "Target address",
          "_typeID": "ID of the token type",
          "_value": "Transfer amount"
        }
      },
      "setApprovalForAll(address,bool)": {
        "details": "MUST emit the ApprovalForAll event on success.",
        "params": {
          "_approved": "True if the operator is approved, false to revoke approval",
          "_operator": "Address to add to the set of authorized operators"
        }
      },
      "setMinter(uint256,address)": {
        "params": {
          "_to": "New minter, in case of address 0 the authorized will be locked forever",
          "_typeID": "Credit _typeID (when credit is fungible) or _type (when credit is non-fungible)"
        }
      },
      "totalSupply(uint256)": {
        "params": {
          "_typeID": "ID of the Credit type"
        },
        "return": "The total supply of the Token type requested"
      }
    }
  },
  "userdoc": {
    "methods": {
      "balanceOf(address,uint256)": {
        "notice": "Get the balance of an account's Tokens."
      },
      "balanceOfBatch(address[],uint256[])": {
        "notice": "Get the balance of multiple account/token pairs (override)"
      },
      "burnFungible(uint256,address,uint256)": {
        "notice": "Delete `_value` of Credit `_typeID` from the world."
      },
      "burnNonFungible(uint256,address)": {
        "notice": "Delete `_value` of Credit `_itemID` from the world."
      },
      "isApprovedForAll(address,address)": {
        "notice": "Queries the approval status of an operator for a given owner."
      },
      "safeBatchTransferFrom(address,address,uint256[],uint256[],bytes)": {
        "notice": "Transfers `_values` amount(s) of `_typeIDs` from the `_from` address to the `_to` address specified (with safety call)."
      },
      "safeFullBatchTransferFrom(address[],address[],uint256[],uint256[],bytes)": {
        "notice": "Multiple transfer with [multi-sender] [multi-receiver] and [muti-]credit type."
      },
      "safeTransferFrom(address,address,uint256,uint256,bytes)": {
        "notice": "Transfers `_value` amount of an `_typeID` from the `_from` address to the `_to` address specified (with safety call)."
      },
      "setApprovalForAll(address,bool)": {
        "notice": "Enable or disable approval for a third party (\"operator\") to manage all of the caller's tokens."
      },
      "setMinter(uint256,address)": {
        "notice": "give `_type` creator authorized to `_minter`."
      },
      "totalSupply(uint256)": {
        "notice": "Get the total supply of a Credit."
      }
    }
  }
}