{
  "contractName": "ERC20Adaptor",
  "abi": [
    {
      "constant": true,
      "inputs": [],
      "name": "typeID",
      "outputs": [
        {
          "name": "",
          "type": "uint256"
        }
      ],
      "payable": false,
      "stateMutability": "view",
      "type": "function"
    },
    {
      "inputs": [
        {
          "name": "_creditAddr",
          "type": "address"
        },
        {
          "name": "_typeID",
          "type": "uint256"
        }
      ],
      "payable": false,
      "stateMutability": "nonpayable",
      "type": "constructor"
    },
    {
      "anonymous": false,
      "inputs": [
        {
          "indexed": true,
          "name": "from",
          "type": "address"
        },
        {
          "indexed": true,
          "name": "to",
          "type": "address"
        },
        {
          "indexed": false,
          "name": "value",
          "type": "uint256"
        }
      ],
      "name": "Transfer",
      "type": "event"
    },
    {
      "anonymous": false,
      "inputs": [
        {
          "indexed": true,
          "name": "owner",
          "type": "address"
        },
        {
          "indexed": true,
          "name": "spender",
          "type": "address"
        },
        {
          "indexed": false,
          "name": "value",
          "type": "uint256"
        }
      ],
      "name": "Approval",
      "type": "event"
    },
    {
      "constant": true,
      "inputs": [],
      "name": "totalSupply",
      "outputs": [
        {
          "name": "",
          "type": "uint256"
        }
      ],
      "payable": false,
      "stateMutability": "view",
      "type": "function"
    },
    {
      "constant": true,
      "inputs": [
        {
          "name": "account",
          "type": "address"
        }
      ],
      "name": "balanceOf",
      "outputs": [
        {
          "name": "",
          "type": "uint256"
        }
      ],
      "payable": false,
      "stateMutability": "view",
      "type": "function"
    },
    {
      "constant": false,
      "inputs": [
        {
          "name": "recipient",
          "type": "address"
        },
        {
          "name": "amount",
          "type": "uint256"
        }
      ],
      "name": "transfer",
      "outputs": [
        {
          "name": "",
          "type": "bool"
        }
      ],
      "payable": false,
      "stateMutability": "nonpayable",
      "type": "function"
    },
    {
      "constant": true,
      "inputs": [
        {
          "name": "owner",
          "type": "address"
        },
        {
          "name": "spender",
          "type": "address"
        }
      ],
      "name": "allowance",
      "outputs": [
        {
          "name": "",
          "type": "uint256"
        }
      ],
      "payable": false,
      "stateMutability": "view",
      "type": "function"
    },
    {
      "constant": false,
      "inputs": [
        {
          "name": "spender",
          "type": "address"
        },
        {
          "name": "amount",
          "type": "uint256"
        }
      ],
      "name": "approve",
      "outputs": [
        {
          "name": "",
          "type": "bool"
        }
      ],
      "payable": false,
      "stateMutability": "nonpayable",
      "type": "function"
    },
    {
      "constant": false,
      "inputs": [
        {
          "name": "sender",
          "type": "address"
        },
        {
          "name": "recipient",
          "type": "address"
        },
        {
          "name": "amount",
          "type": "uint256"
        }
      ],
      "name": "transferFrom",
      "outputs": [
        {
          "name": "",
          "type": "bool"
        }
      ],
      "payable": false,
      "stateMutability": "nonpayable",
      "type": "function"
    }
  ],
  "bytecode": "0x608060405234801561001057600080fd5b506040516040806108998339810180604052604081101561003057600080fd5b50805160209182015160008054600160a060020a031916600160a060020a038085169190911791829055604080517fadebf6f200000000000000000000000000000000000000000000000000000000815260048101859052905194959394929091169263adebf6f292602480840193829003018186803b1580156100b357600080fd5b505afa1580156100c7573d6000803e3d6000fd5b505050506040513d60208110156100dd57600080fd5b5051151561017257604080517f08c379a000000000000000000000000000000000000000000000000000000000815260206004820152603460248201527f455243323041646170746f723a2074686520637265646974206973206e6f742060448201527f66756e6769626c65206372656469742074797065000000000000000000000000606482015290519081900360840190fd5b60015550610714806101856000396000f3fe6080604052600436106100665760003560e01c63ffffffff168063095ea7b31461006b57806318160ddd146100b857806323b872dd146100df5780634c8435f21461012257806370a0823114610137578063a9059cbb1461016a578063dd62ed3e146101a3575b600080fd5b34801561007757600080fd5b506100a46004803603604081101561008e57600080fd5b50600160a060020a0381351690602001356101de565b604080519115158252519081900360200190f35b3480156100c457600080fd5b506100cd6101f4565b60408051918252519081900360200190f35b3480156100eb57600080fd5b506100a46004803603606081101561010257600080fd5b50600160a060020a0381358116916020810135909116906040013561028e565b34801561012e57600080fd5b506100cd6102e5565b34801561014357600080fd5b506100cd6004803603602081101561015a57600080fd5b5035600160a060020a03166102eb565b34801561017657600080fd5b506100a46004803603604081101561018d57600080fd5b50600160a060020a03813516906020013561038d565b3480156101af57600080fd5b506100cd600480360360408110156101c657600080fd5b50600160a060020a038135811691602001351661039a565b60006101eb3384846103c5565b50600192915050565b60008054600154604080517fbd85b039000000000000000000000000000000000000000000000000000000008152600481019290925251600160a060020a039092169163bd85b03991602480820192602092909190829003018186803b15801561025d57600080fd5b505afa158015610271573d6000803e3d6000fd5b505050506040513d602081101561028757600080fd5b5051905090565b600061029b848484610560565b600160a060020a0384166000908152600260209081526040808320338085529252909120546102db9186916102d6908663ffffffff61067116565b6103c5565b5060019392505050565b60015481565b60008054600154604080517efdd58e000000000000000000000000000000000000000000000000000000008152600160a060020a03868116600483015260248201939093529051919092169162fdd58e916044808301926020929190829003018186803b15801561035b57600080fd5b505afa15801561036f573d6000803e3d6000fd5b505050506040513d602081101561038557600080fd5b505192915050565b60006101eb338484610560565b600160a060020a03918216600090815260026020908152604080832093909416825291909152205490565b600160a060020a038316151561046157604080517f08c379a0000000000000000000000000000000000000000000000000000000008152602060048201526024808201527f45524332303a20617070726f76652066726f6d20746865207a65726f2061646460448201527f7265737300000000000000000000000000000000000000000000000000000000606482015290519081900360840190fd5b600160a060020a03821615156104fe57604080517f08c379a000000000000000000000000000000000000000000000000000000000815260206004820152602260248201527f45524332303a20617070726f766520746f20746865207a65726f20616464726560448201527f7373000000000000000000000000000000000000000000000000000000000000606482015290519081900360840190fd5b600160a060020a03808416600081815260026020908152604080832094871680845294825291829020859055815185815291517f8c5be1e5ebec7d5bd14f71427d1e84f3dd0314c0f7b2291e5b200ac8c7c3b9259281900390910190a3505050565b60008054600154604080517ff242432a000000000000000000000000000000000000000000000000000000008152600160a060020a038881166004830152878116602483015260448201939093526064810186905260a06084820152600360a48201527f307830000000000000000000000000000000000000000000000000000000000060c48201529051919092169263f242432a9260e4808201939182900301818387803b15801561061257600080fd5b505af1158015610626573d6000803e3d6000fd5b5050604080518481529051600160a060020a038087169450871692507fddf252ad1be2c89b69c2b068fc378daa952ba7f163c4a11628f55a4df523b3ef9181900360200190a3505050565b6000828211156106e257604080517f08c379a000000000000000000000000000000000000000000000000000000000815260206004820152601e60248201527f536166654d6174683a207375627472616374696f6e206f766572666c6f770000604482015290519081900360640190fd5b5090039056fea165627a7a723058206e55b3f3648985347c2716f6838fe74a0d3103fc7e8c807d0a9accc7bedf8fdc0029",
  "source": "pragma solidity ^0.5.0;\n\nimport \"@openzeppelin/contracts/token/ERC20/IERC20.sol\";\nimport \"@Evrynetlabs/credit-contract/contracts/EER2B.sol\";\n\n\ncontract ERC20Adaptor is IERC20 {\n    // library was imported in EER-2 contract\n    using SafeMath for uint256;\n    EER2B private credit;\n    uint256 public typeID;\n    mapping(address => mapping(address => uint256)) private allowances;\n\n    constructor(address _creditAddr, uint256 _typeID) public {\n        credit = EER2B(_creditAddr);\n        require(credit.isFungible(_typeID), \"ERC20Adaptor: the credit is not fungible credit type\");\n        typeID = _typeID;\n    }\n\n    /**\n     * @dev See {IERC20-totalSupply}.\n     */\n    function totalSupply() external view returns (uint256) {\n        return credit.totalSupply(typeID);\n    }\n\n    /**\n     * @dev See {IERC20-balanceOf}.\n     */\n    function balanceOf(address account) external view returns (uint256) {\n        return credit.balanceOf(account, typeID);\n    }\n\n    /**\n     * @dev See {IERC20-transfer}.\n     *\n     * See EER2A for the requirements\n     */\n    function transfer(address recipient, uint256 amount) external returns (bool) {\n        _transfer(msg.sender, recipient, amount);\n        return true;\n    }\n\n    /**\n     * @dev See {IERC20-allowance}.\n     */\n    function allowance(address owner, address spender) external view returns (uint256) {\n        return allowances[owner][spender];\n    }\n\n    /**\n     * @dev See {IERC20-approve}.\n     *\n     * Requirements:\n     *\n     * - `spender` cannot be the zero address.\n     */\n    function approve(address spender, uint256 amount) external returns (bool) {\n        _approve(msg.sender, spender, amount);\n        return true;\n    }\n\n    /**\n     * @dev See {IERC20-transferFrom}.\n     *\n     * Emits an {Approval} event indicating the updated allowance. This is not\n     * required by the EIP. See the note at the beginning of {ERC20};\n     *\n     * Requirements:\n     * - see {EER2A-safeTransferFrom}.\n     * - the caller must have allowance for `sender`'s tokens of at least `amount`.\n     */\n    function transferFrom(address sender, address recipient, uint256 amount) public returns (bool) {\n        _transfer(sender, recipient, amount);\n        _approve(sender, msg.sender, allowances[sender][msg.sender].sub(amount));\n        return true;\n    }\n\n    /**\n     * @dev Sets `amount` as the allowance of `spender` over the `owner`s tokens.\n     *\n     * This is internal function is equivalent to `approve`, and can be used to\n     * e.g. set automatic allowances for certain subsystems, etc.\n     *\n     * Emits an {Approval} event.\n     *\n     * Requirements:\n     *\n     * - `owner` cannot be the zero address.\n     * - `spender` cannot be the zero address.\n     */\n    function _approve(address owner, address spender, uint256 amount) internal {\n        require(owner != address(0), \"ERC20: approve from the zero address\");\n        require(spender != address(0), \"ERC20: approve to the zero address\");\n\n        allowances[owner][spender] = amount;\n        emit Approval(owner, spender, amount);\n    }\n\n    /**\n     * @dev Moves tokens `amount` from `sender` to `recipient`.\n     *\n     * This is internal function is equivalent to {transfer}, and can be used to\n     * e.g. implement automatic token fees, slashing mechanisms, etc.\n     *\n     * Emits a {Transfer} event.\n     *\n     * Requirements: see {EER2A-safeTransferFrom}\n     */\n    function _transfer(address _from, address _to, uint256 _value) internal {\n        credit.safeTransferFrom(_from, _to, typeID, _value, \"0x0\");\n        emit Transfer(_from, _to, _value);\n    }\n}\n",
  "sourcePath": "/Users/100x/Evrynetlabs/ERC20-Adaptor/contracts/ERC20Adaptor.sol",
  "compiler": {
    "name": "solc",
    "version": "0.5.0+commit.1d4f565a.Emscripten.clang"
  },
  "schemaVersion": "3.0.19",
  "updatedAt": "2020-04-10T11:26:20.479Z",
  "devdoc": {
    "methods": {
      "allowance(address,address)": {
        "details": "See {IERC20-allowance}."
      },
      "approve(address,uint256)": {
        "details": "See {IERC20-approve}.     * Requirements:     * - `spender` cannot be the zero address."
      },
      "balanceOf(address)": {
        "details": "See {IERC20-balanceOf}."
      },
      "totalSupply()": {
        "details": "See {IERC20-totalSupply}."
      },
      "transfer(address,uint256)": {
        "details": "See {IERC20-transfer}.     * See EER2A for the requirements"
      },
      "transferFrom(address,address,uint256)": {
        "details": "See {IERC20-transferFrom}.     * Emits an {Approval} event indicating the updated allowance. This is not required by the EIP. See the note at the beginning of {ERC20};     * Requirements: - see {EER2A-safeTransferFrom}. - the caller must have allowance for `sender`'s tokens of at least `amount`."
      }
    }
  },
  "userdoc": {
    "methods": {}
  }
}