{
  "contractName": "ERC20AdaptorFactory",
  "abi": [
    {
      "constant": true,
      "inputs": [
        {
          "name": "",
          "type": "uint256"
        }
      ],
      "name": "adaptorRegistry",
      "outputs": [
        {
          "name": "",
          "type": "address"
        }
      ],
      "payable": false,
      "stateMutability": "view",
      "type": "function"
    },
    {
      "inputs": [
        {
          "name": "_creditAddr",
          "type": "address"
        }
      ],
      "payable": false,
      "stateMutability": "nonpayable",
      "type": "constructor"
    },
    {
      "constant": false,
      "inputs": [
        {
          "name": "_creditTypeID",
          "type": "uint256"
        }
      ],
      "name": "deployAdaptor",
      "outputs": [
        {
          "name": "",
          "type": "address"
        }
      ],
      "payable": false,
      "stateMutability": "nonpayable",
      "type": "function"
    }
  ],
  "bytecode": "0x608060405234801561001057600080fd5b50604051602080610ab18339810180604052602081101561003057600080fd5b505160008054600160a060020a03909216600160a060020a0319909216919091179055610a4f806100626000396000f3fe60806040526004361061002f5760003560e01c63ffffffff16806338f8b41614610034578063f39f59be1461007a575b600080fd5b34801561004057600080fd5b5061005e6004803603602081101561005757600080fd5b50356100a4565b60408051600160a060020a039092168252519081900360200190f35b34801561008657600080fd5b5061005e6004803603602081101561009d57600080fd5b503561015f565b600081815260016020526040812054600160a060020a0316151561014357600054600160a060020a0316826100d761017a565b600160a060020a0390921682526020820152604080519182900301906000f080158015610108573d6000803e3d6000fd5b506000838152600160205260409020805473ffffffffffffffffffffffffffffffffffffffff1916600160a060020a03929092169190911790555b50600090815260016020526040902054600160a060020a031690565b600160205260009081526040902054600160a060020a031681565b6040516108998061018b8339019056fe608060405234801561001057600080fd5b506040516040806108998339810180604052604081101561003057600080fd5b50805160209182015160008054600160a060020a031916600160a060020a038085169190911791829055604080517fadebf6f200000000000000000000000000000000000000000000000000000000815260048101859052905194959394929091169263adebf6f292602480840193829003018186803b1580156100b357600080fd5b505afa1580156100c7573d6000803e3d6000fd5b505050506040513d60208110156100dd57600080fd5b5051151561017257604080517f08c379a000000000000000000000000000000000000000000000000000000000815260206004820152603460248201527f455243323041646170746f723a2074686520637265646974206973206e6f742060448201527f66756e6769626c65206372656469742074797065000000000000000000000000606482015290519081900360840190fd5b60015550610714806101856000396000f3fe6080604052600436106100665760003560e01c63ffffffff168063095ea7b31461006b57806318160ddd146100b857806323b872dd146100df5780634c8435f21461012257806370a0823114610137578063a9059cbb1461016a578063dd62ed3e146101a3575b600080fd5b34801561007757600080fd5b506100a46004803603604081101561008e57600080fd5b50600160a060020a0381351690602001356101de565b604080519115158252519081900360200190f35b3480156100c457600080fd5b506100cd6101f4565b60408051918252519081900360200190f35b3480156100eb57600080fd5b506100a46004803603606081101561010257600080fd5b50600160a060020a0381358116916020810135909116906040013561028e565b34801561012e57600080fd5b506100cd6102e5565b34801561014357600080fd5b506100cd6004803603602081101561015a57600080fd5b5035600160a060020a03166102eb565b34801561017657600080fd5b506100a46004803603604081101561018d57600080fd5b50600160a060020a03813516906020013561038d565b3480156101af57600080fd5b506100cd600480360360408110156101c657600080fd5b50600160a060020a038135811691602001351661039a565b60006101eb3384846103c5565b50600192915050565b60008054600154604080517fbd85b039000000000000000000000000000000000000000000000000000000008152600481019290925251600160a060020a039092169163bd85b03991602480820192602092909190829003018186803b15801561025d57600080fd5b505afa158015610271573d6000803e3d6000fd5b505050506040513d602081101561028757600080fd5b5051905090565b600061029b848484610560565b600160a060020a0384166000908152600260209081526040808320338085529252909120546102db9186916102d6908663ffffffff61067116565b6103c5565b5060019392505050565b60015481565b60008054600154604080517efdd58e000000000000000000000000000000000000000000000000000000008152600160a060020a03868116600483015260248201939093529051919092169162fdd58e916044808301926020929190829003018186803b15801561035b57600080fd5b505afa15801561036f573d6000803e3d6000fd5b505050506040513d602081101561038557600080fd5b505192915050565b60006101eb338484610560565b600160a060020a03918216600090815260026020908152604080832093909416825291909152205490565b600160a060020a038316151561046157604080517f08c379a0000000000000000000000000000000000000000000000000000000008152602060048201526024808201527f45524332303a20617070726f76652066726f6d20746865207a65726f2061646460448201527f7265737300000000000000000000000000000000000000000000000000000000606482015290519081900360840190fd5b600160a060020a03821615156104fe57604080517f08c379a000000000000000000000000000000000000000000000000000000000815260206004820152602260248201527f45524332303a20617070726f766520746f20746865207a65726f20616464726560448201527f7373000000000000000000000000000000000000000000000000000000000000606482015290519081900360840190fd5b600160a060020a03808416600081815260026020908152604080832094871680845294825291829020859055815185815291517f8c5be1e5ebec7d5bd14f71427d1e84f3dd0314c0f7b2291e5b200ac8c7c3b9259281900390910190a3505050565b60008054600154604080517ff242432a000000000000000000000000000000000000000000000000000000008152600160a060020a038881166004830152878116602483015260448201939093526064810186905260a06084820152600360a48201527f307830000000000000000000000000000000000000000000000000000000000060c48201529051919092169263f242432a9260e4808201939182900301818387803b15801561061257600080fd5b505af1158015610626573d6000803e3d6000fd5b5050604080518481529051600160a060020a038087169450871692507fddf252ad1be2c89b69c2b068fc378daa952ba7f163c4a11628f55a4df523b3ef9181900360200190a3505050565b6000828211156106e257604080517f08c379a000000000000000000000000000000000000000000000000000000000815260206004820152601e60248201527f536166654d6174683a207375627472616374696f6e206f766572666c6f770000604482015290519081900360640190fd5b5090039056fea165627a7a723058206e55b3f3648985347c2716f6838fe74a0d3103fc7e8c807d0a9accc7bedf8fdc0029a165627a7a7230582048650f8a77cadac7915925a17039b74582d14018c325fc8b962b9d46f76a99af0029",
  "source": "pragma solidity ^0.5.0;\n\nimport \"./ERC20Adaptor.sol\";\nimport \"@Evrynetlabs/credit-contract/contracts/EER2B.sol\";\n\n\ncontract ERC20AdaptorFactory {\n    address private creditAddr;\n\n    mapping(uint256 => address) public adaptorRegistry;\n\n    constructor(address _creditAddr) public {\n        creditAddr = _creditAddr;\n    }\n\n    /**\n        @dev Factory contract deploys ERC20Adaptor contract \n        @param _creditTypeID The type id of credit \n        @return ERC20Adaptor's address\n     */\n    function deployAdaptor(uint256 _creditTypeID) public returns (address) {\n        if (adaptorRegistry[_creditTypeID] == address(0)) {\n            adaptorRegistry[_creditTypeID] = address(new ERC20Adaptor(creditAddr, _creditTypeID));\n        }\n        return adaptorRegistry[_creditTypeID];\n    }\n}\n",
  "sourcePath": "/Users/100x/Evrynetlabs/ERC20-Adaptor/contracts/ERC20AdaptorFactory.sol",
  "compiler": {
    "name": "solc",
    "version": "0.5.0+commit.1d4f565a.Emscripten.clang"
  },
  "schemaVersion": "3.0.19",
  "updatedAt": "2020-04-10T11:26:20.485Z",
  "devdoc": {
    "methods": {
      "deployAdaptor(uint256)": {
        "details": "Factory contract deploys ERC20Adaptor contract ",
        "params": {
          "_creditTypeID": "The type id of credit "
        },
        "return": "ERC20Adaptor's address"
      }
    }
  },
  "userdoc": {
    "methods": {}
  }
}